:020000040800F2
:1000000000800020E1650008C9180008CB1800082E
:10001000CD180008CF180008D11800080000000013
:10002000000000000000000000000000D3180008DD
:10003000D518000800000000D7180008D9180008DB
:100040003166000831660008316600083166000834
:100050003166000831660008316600083166000824
:10006000316600083166000831660008E1180008B2
:100070003166000831660008316600083166000804
:100080003166000800000000316600083166000893
:1000900031660008316600083166000831660008E4
:1000A00031660008316600083166000831660008D4
:1000B00031660008316600083166000831660008C4
:1000C00031660008316600083166000831660008B4
:1000D00031660008F118000801190008111900081C
:1000E0003166000831660008316600083166000894
:1000F0003166000831660008316600080000000023
:1001000000000000316600080000000031660008B1
:1001100031660008000000002119000831190008AC
:100120003166000831660008316600083166000853
:100130003166000800000000000000003166000881
:100140003166000831660008000000000000000071
:10015000000000000000000000000000000000009F
:1001600000000000000000000000000031660008F0
:1001700031660008000000000000000000000000E0
:1001800000000000316600080000000000000000D0
:10019000000000000000000000000000000000005F
:1001A0000000000000000000316600083166000811
:1001B0003166000831660008316600080000000062
:1001C0000000000031660008000000000000000090
:0801D0003166000831660008E9
:1001E00010B5054C237833B9044B13B10448AFF371
:1001F00000800123237010BD90000020000000004B
:10020000746F000808B5034B1BB103490348AFF3F3
:10021000008008BD0000000094000020746F0008FA
:1002200001F0FF01102A2BDB10F0070F08D010F8A7
:10023000013B013A8B422DD010F0070F42B3F6D1AB
:10024000F0B441EA012141EA014122F007047FF0C4
:1002500000070023F0E80256083C85EA010586EA1B
:10026000010685FA47F5A3FA87F586FA47F6A5FA57
:1002700087F68EB9EED1F0BC01F0FF0102F0070263
:1002800032B110F8013B013A83EA010313B1F8D10E
:100290000020704701387047002D06BF35460338EF
:1002A000073815F0010F07D1013015F4807F02BF28
:1002B000013015F4C03F0130F0BC0138704700BF79
:1002C00070B54FF0FF0C4CF4E06C1CEA11541DBFEC
:1002D0001CEA135594EA0C0F95EA0C0F00F0DEF8B7
:1002E0002C4481EA030621EA4C5123EA4C5350EA9C
:1002F000013518BF52EA033541F4801143F48013ED
:1003000038D0A0FB02CE4FF00005E1FB02E506F07D
:100310000042E0FB03E54FF00006E1FB03569CF0D2
:10032000000F18BF4EF0010EA4F1FF04B6F5007FD8
:1003300064F5407404D25FEA4E0E6D4146EB06064A
:1003400042EAC62141EA55514FEAC52040EA5E50D3
:100350004FEACE2EB4F1FD0C88BFBCF5E06F1ED87D
:10036000BEF1004F08BF5FEA500E50F1000041EBB4
:10037000045170BD06F0004646EA010140EA020061
:1003800081EA0301B4EB5C04C2BFD4EB0C0541EA83
:10039000045170BD41F480114FF0000E013C00F398
:1003A000AB8014F1360FDEBF002001F0004170BDBC
:1003B000C4F10004203C35DA0C341BDC04F11404D5
:1003C000C4F1200500FA05F320FA04F001FA05F261
:1003D00040EA020001F0004221F0004110EBD3702E
:1003E00021FA04F642EB06015EEA430E08BF20EA5A
:1003F000D37070BDC4F10C04C4F1200500FA04F3FD
:1004000020FA05F001FA04F240EA020001F000418E
:1004100010EBD37041F100015EEA430E08BF20EA01
:10042000D37070BDC4F1200500FA05F24EEA020E49
:1004300020FA04F301FA05F243EA020321FA04F078
:1004400001F0004121FA04F220EA020000EBD3702F
:100450005EEA430E08BF20EAD37070BD94F0000F2F
:100460000FD101F00046400041EB010111F4801F63
:1004700008BF013CF7D041EA060195F0000F18BF14
:10048000704703F00046520043EB030313F4801F50
:1004900008BF013DF7D043EA0603704794EA0C0F0A
:1004A0000CEA135518BF95EA0C0F0CD050EA410620
:1004B00018BF52EA4306D1D181EA030101F000419D
:1004C0004FF0000070BD50EA410606BF10461946C5
:1004D00052EA430619D094EA0C0F02D150EA0136D1
:1004E00013D195EA0C0F05D152EA03361CBF104612
:1004F00019460AD181EA030101F0004141F0FE41B1
:1005000041F470014FF0000070BD41F0FE4141F434
:10051000780170BD81F0004102E000BF83F000432C
:1005200030B54FEA41044FEA430594EA050F08BF8E
:1005300090EA020F1FBF54EA000C55EA020C7FEA52
:10054000645C7FEA655C00F0E2804FEA5454D4EBCF
:100550005555B8BF6D420CDD2C4480EA020281EA99
:10056000030382EA000083EA010180EA020281EAD1
:100570000303362D88BF30BD11F0004F4FEA013123
:100580004FF4801C4CEA113102D0404261EB410132
:1005900013F0004F4FEA03334CEA133302D05242B8
:1005A00063EB430394EA050F00F0A780A4F1010474
:1005B000D5F1200E0DDB02FA0EFC22FA05F28018AE
:1005C00041F1000103FA0EF2801843FA05F3594194
:1005D0000EE0A5F120050EF1200E012A03FA0EFC13
:1005E00028BF4CF0020C43FA05F3C01851EBE3713D
:1005F00001F0004507D54FF0000EDCF1000C7EEB5A
:1006000000006EEB0101B1F5801F1BD3B1F5001F97
:100610000CD349085FEA30004FEA3C0C04F10104B6
:100620004FEA445212F5800F80F09A80BCF1004FDF
:1006300008BF5FEA500C50F1000041EB045141EA61
:10064000050130BD5FEA4C0C404141EB0101013C2A
:1006500028BFB1F5801FE9D291F0000F04BF014619
:100660000020B1FA81F308BF2033A3F10B03B3F1EB
:1006700020020CDA0C3208DD02F1140CC2F10C027B
:1006800001FA0CF021FA02F10CE002F11402D8BFD9
:10069000C2F1200C01FA02F120FA0CFCDCBF41EAA5
:1006A0000C019040E41AA2BF01EB0451294330BD74
:1006B0006FEA04041F3C1CDA0C340EDC04F1140451
:1006C000C4F1200220FA04F001FA02F340EA030028
:1006D00021FA04F345EA030130BDC4F10C04C4F16E
:1006E000200220FA02F001FA04F340EA030029464E
:1006F00030BD21FA04F0294630BD94F0000F83F498
:10070000801306BF81F480110134013D4EE77FEA7A
:10071000645C18BF7FEA655C29D094EA050F08BFC6
:1007200090EA020F05D054EA000C04BF19461046A7
:1007300030BD91EA030F1EBF0021002030BD5FEAEB
:10074000545C05D14000494128BF41F0004130BD13
:1007500014F580043CBF01F5801130BD01F0004567
:1007600045F0FE4141F470014FF0000030BD7FEADA
:10077000645C1ABF194610467FEA655C1CBF0B46D5
:10078000024650EA013406BF52EA033591EA030FEC
:1007900041F4002130BD00BF90F0000F04BF0021E4
:1007A000704730B54FF4806404F132044FF0000517
:1007B0004FF0000150E700BF90F0000F04BF002190
:1007C000704730B54FF4806404F1320410F00045F6
:1007D00048BF40424FF000013EE700BF42004FEAF1
:1007E000E2014FEA31014FEA02701FBF12F07F436E
:1007F00093F07F4F81F06051704732F07F4208BF25
:10080000704793F07F4F04BF41F40021704730B52B
:100810004FF4607401F0004521F000411CE700BF77
:1008200050EA010208BF704730B54FF000050AE0FA
:1008300050EA010208BF704730B511F0004502D5FB
:10084000404261EB41014FF4806404F132045FEAFD
:10085000915C3FF4D8AE4FF003025FEADC0C18BFA6
:1008600003325FEADC0C18BF033202EBDC02C2F198
:10087000200300FA03FC20FA02F001FA03FE40EA2A
:100880000E0021FA02F11444BDE600BF4FF0FF3C18
:1008900006E000BF4FF0010C02E000BF4FF0010C7A
:1008A0004DF804CD4FEA410C7FEA6C5C4FEA430CF3
:1008B00018BF7FEA6C5C1BD001B050EA410C0CBF42
:1008C00052EA430C91EA030F02BF90EA020F0020A4
:1008D000704710F1000F91EA030F58BF994208BF0B
:1008E00090422CBFD8176FEAE37040F001007047C8
:1008F0004FEA410C7FEA6C5C02D150EA013C07D11F
:100900004FEA430C7FEA6C5CD6D152EA033CD3D069
:100910005DF8040B704700BF8446104662468C4663
:100920001946634600E000BF01B5FFF7B7FF002896
:1009300048BF10F1000F01BD4DF808EDFFF7F4FFBF
:100940000CBF012000205DF808FB00BF4DF808ED4A
:10095000FFF7EAFF34BF012000205DF808FB00BF6D
:100960004DF808EDFFF7E0FF94BF012000205DF88F
:1009700008FB00BF4DF808EDFFF7CEFF94BF012044
:1009800000205DF808FB00BF4DF808EDFFF7C4FF3D
:1009900034BF012000205DF808FB00BF4A0011D2DF
:1009A00012F5001211D20DD56FF47873B3EB6252C9
:1009B0000ED44FEAC12343F0004343EA505323FAD5
:1009C00002F070474FF00000704750EA013002D14A
:1009D0004FF0FF3070474FF00000704753B94AB9ED
:1009E000002908BF00281CBF4FF0FF314FF0FF3037
:1009F00000F074B9ADF1080C6DE904CE00F006F812
:100A0000DDF804E0DDE9022304B070472DE9F0478A
:100A1000089D04468E46002B4DD18A42944669D9E2
:100A2000B2FA82F252B101FA02F3C2F1200120FAC5
:100A300001F10CFA02FC41EA030E94404FEA1C4813
:100A4000210CBEFBF8F61FFA8CF708FB16E341EA0F
:100A5000034306FB07F199420AD91CEB030306F195
:100A6000FF3080F01F81994240F21C81023E6344B6
:100A70005B1AA4B2B3FBF8F008FB103344EA03445A
:100A800000FB07F7A7420AD91CEB040400F1FF336F
:100A900080F00A81A74240F207816444023840EAAC
:100AA0000640E41B00261DB1D4400023C5E90043E5
:100AB0003146BDE8F0878B4209D9002D00F0EF8068
:100AC0000026C5E9000130463146BDE8F087B3FA9B
:100AD00083F6002E4AD18B4202D3824200F2F98083
:100AE000841A61EB030301209E46002DE0D0C5E986
:100AF000004EDDE702B9FFDEB2FA82F2002A40F0D2
:100B00009280A1EB0C014FEA1C471FFA8CFE0126D4
:100B1000200CB1FBF7F307FB131140EA01410EFB78
:100B200003F0884208D91CEB010103F1FF3802D21F
:100B3000884200F2CB804346091AA4B2B1FBF7F019
:100B400007FB101144EA01440EFB00FEA64508D93C
:100B50001CEB040400F1FF3102D2A64500F2BB8079
:100B60000846A4EB0E0440EA03409CE7C6F12007C8
:100B7000B34022FA07FC4CEA030C20FA07F401FA0E
:100B800006F31C43F9404FEA1C4900FA06F3B1FB97
:100B9000F9F8200C1FFA8CFE09FB181140EA0141FC
:100BA00008FB0EF0884202FA06F20BD91CEB010199
:100BB00008F1FF3A80F08880884240F28580A8F1F1
:100BC00002086144091AA4B2B1FBF9F009FB101143
:100BD00044EA014100FB0EFE8E4508D91CEB0101E1
:100BE00000F1FF346CD28E456AD90238614440EA84
:100BF0000840A0FB0294A1EB0E01A142C846A64604
:100C000056D353D05DB1B3EB080261EB0E0101FA8C
:100C100007F722FA06F3F1401F43C5E900710026E9
:100C20003146BDE8F087C2F12003D8400CFA02FC3F
:100C300021FA03F3914001434FEA1C471FFA8CFE4F
:100C4000B3FBF7F007FB10360B0C43EA064300FB3F
:100C50000EF69E4204FA02F408D91CEB030300F1DD
:100C6000FF382FD29E422DD9023863449B1B89B294
:100C7000B3FBF7F607FB163341EA034106FB0EF31D
:100C80008B4208D91CEB010106F1FF3816D28B42CA
:100C900014D9023E6144C91A46EA004638E72E4696
:100CA000284605E70646E3E61846F8E64B45A9D28E
:100CB000B9EB020864EB0C0E0138A3E74646EAE7FD
:100CC000204694E74046D1E7D0467BE7023B6144AB
:100CD00032E7304609E76444023842E7704700BF14
:100CE00038B5044602688A4B9A4209D02268894B7B
:100CF0009A4211D02268884B9A4200F0BD8038BDDC
:100D0000864D01222946864803F092FE2978854BBC
:100D1000986805F002FAE9E701228349834803F065
:100D200087FE834B1B781BB97F4A1278232A16D083
:100D3000012B18D0022B1ED0032B43D0042B49D0FB
:100D4000052B50D0062B1ED1774B1B78212B52D070
:100D500078490A78501C087077498B5413E0744B1B
:100D600001221A700FE0704A1278502AE2D1704BBB
:100D700002221A7007E06C4B1B78303B6F4A1370ED
:100D80006B4B03221A706E4B1B781BB9664A1278A4
:100D9000402A3CD0012B3ED0022B44D0032B4AD01A
:100DA000042B50D0052B56D0062BA3D15E4B1B78BD
:100DB000212B58D063490A78501C0870303B624997
:100DC0008B5497E7584A12785F2AB7D1584B0422C0
:100DD0001A70D8E7544B1B78303B5C4A1370544B65
:100DE00005221A70CFE7504A12783D2AAAD1504BFB
:100DF00006221A70C7E74F4A1178554B1970002325
:100E000013704B4A1370534B01221A70BBE74C4BC3
:100E100001221A706EE7444A1278462ABCD1484B28
:100E200002221A7066E7404A12786C2AB6D1444B07
:100E300003221A705EE73C4A1278612AB0D1404B17
:100E400004221A7056E7384A1278672AAAD13C4B16
:100E500005221A704EE7344A12783D2AA4D1384B45
:100E600006221A7046E70023354A13703A4A0121D8
:100E70001170344A13703DE701223849384803F0B5
:100E800055FE384B1B78002B7FF439AF364B1B785F
:100E9000012B7FF434AF314B1A78AA2A29D0552A76
:100EA0002BD0324B1B78012B6CD0012B7FF427AF5A
:100EB0002F4B1B78012B7FF422AF2E490B78581C47
:100EC0000870002B3FF41BAF2B4801784B1CDBB2A2
:100ED00003702A484254032B7FF611AF0023264AA1
:100EE0001370224A1370234A13701E4B01221A708A
:100EF00005E7234B01211970D3E7214B1B78012B08
:100F0000CFD11F4B00211970184B01211970C8E770
:100F1000003801400044004000480040010000202B
:100F200020020020280500202F0A0020B402002003
:100F3000B9000020BA000020A4090020300A0020D7
:100F4000B7000020B800002040090020310A00202E
:100F50003C0900202C0A0020080A0020D1000020B3
:100F600048030020AD000020AE000020AC000020AF
:100F7000AF000020BB000020D0000020BC000020FB
:100F8000B00000201049097800298ED10F490B7854
:100F9000581C0870002B3FF4B2AE0D4801784B1C72
:100FA000DBB203700B484254132B7FF6A8AE00232C
:100FB000074A1370084A1370044A13700123074A42
:100FC0001370014A13709AE6AF000020BB000020A6
:100FD000D0000020BC000020AC000020AD000020AC
:100FE00002681D4B9A4204D002681C4B9A420CD0F6
:100FF00070471B4B1B6823B1194A1368013B1360F0
:10100000F2E7174B00221A60EEE7164B1B7873B11C
:10101000154A13780133DBB21370632B07D9002311
:10102000104A1370104A1370104B01221A70104BA3
:101030001B88002BDCD00F4A138801339BB213802E
:1010400041F26F729342D3D90A4B00221A800A4BA5
:1010500001221A80CCE700BF0010004000140040BD
:1010600024050020B3000020B2000020B4000020BE
:101070009C040020980400209A04002072B6FEE729
:1010800000B595B03822002106A805F0FDFA002031
:101090000190029003900490059002F061F8022301
:1010A00006934FF48072099240220A920D930E9398
:1010B00004220F925522109211931293139306A8B3
:1010C00001F022F880B90F23019303230293002338
:1010D00003930493059304210DEB010001F0CAFA78
:1010E00020B915B05DF804FBFFF7C8FFFFF7C6FF96
:1010F00008B500F0A7FFFFF7C3FF00F09FF800F06E
:1011000015F900F035F900F04BFA00F09BFA00F009
:10111000CDFA00F0BDF900F0E3F904F083FB04F030
:10112000A9FB04F059F901223349344803F080FC4B
:101130004FF47A7005F04EF8012220214FF09040D4
:1011400001F021FE01222E492E4803F071FC0122FC
:101150002D492E4803F0EAFC9FED2D8A2D4C0022EC
:10116000B0EE480A2C4B1978206805F06FF9002280
:10117000B0EE480A294B1978206805F067F901E0BC
:1011800004F0D0FC04F048FC254B18600128F7D08F
:10119000022802D00328F5D109E004F0FFFDF1E7B1
:1011A000204C0123237003F0F3FD0023237004F08F
:1011B00027FE1D4B18600128F2D0022804D0002819
:1011C000F5D104F057FBDDE704F06EFE174B186015
:1011D00001280ED00228EAD11549164803F080FFF5
:1011E000154B01221A70124B5968186804F056F812
:1011F000F9E704F0ADFEDAE701000020200200204C
:101200002F0A0020B4020020D10000204803002053
:1012100000000045280000200200002003000020FC
:10122000E8040020B5000020EC040020F0040020B9
:1012300018040020C0040020AE000020F0B58BB0E0
:10124000002405940694079408940994344BDA6CAE
:1012500042F02002DA64DA6C02F020020192019A74
:10126000DA6C42F00402DA64DA6C02F004020292F0
:10127000029ADA6C42F00102DA64DA6C02F00102DE
:101280000392039ADA6C42F00202DA64DB6C03F038
:1012900002030493049B22464FF491714FF0904057
:1012A00001F071FD1F4E22463021304601F06BFDEA
:1012B0001D4F22460721384601F065FD082305939E
:1012C00006940125079505A9304601F06BFCC12362
:1012D00005930694079505A94FF0904001F062FC34
:1012E0004FF49173059306950794089405A94FF060
:1012F000904001F057FC302305930695079408941D
:1013000005A9304601F04EFC072305930695079486
:10131000089405A9384601F045FC0BB0F0BD00BFAC
:1013200000100240000800480004004800B583B0E7
:101330000E4B9A6C42F004029A649A6C02F004021A
:101340000092009A9A6C42F001029A649B6C03F03E
:1013500001030193019B002211460B2001F0A0FF25
:101360000B2001F0D5FF03B05DF804FB0010024034
:1013700008B51448144B0360144B4360002383608A
:101380000122C260036143618361C361036200F0B3
:1013900088FC70B900210B4800F0BBFD60B900214A
:1013A000084800F0E4FD50B94FF4801000F00CFE46
:1013B00008BDFFF763FEEDE7FFF760FEEFE7FFF71D
:1013C0005DFEF1E7D4000020005400400F065240BB
:1013D0002DE9F0419AB0044600211591169117911C
:1013E00018911991442204A805F04EF92268254B62
:1013F0009A4202D01AB0BDE8F0814023049304A8B9
:1014000001F05EFA002839D11F4CE36C43F0010370
:10141000E364E36C03F001030193019BE36C43F08D
:101420000203E364E36C03F002030293029B4FF4B4
:10143000004315934FF01208CDF8588000271797F6
:10144000032618960425199515A94FF0904001F030
:10145000A9FB80231593CDF85880179718961995F6
:1014600015A90A4801F09EFBA36D43F40013A36580
:10147000A36D03F400130393039BBBE7FFF7FEFD8B
:10148000C2E700BF005400400010024000040048C2
:1014900000B585B000230193029303930E480F4AD1
:1014A0000260A9224260836040F2E732C260836139
:1014B00002F008F950B900230193039301A90648EB
:1014C00002F030F928B905B05DF804FBFFF7D6FD4E
:1014D000F1E7FFF7D3FDF6E72801002000100040F8
:1014E00000B585B000230193029303930E480F4A81
:1014F0000260A9224260836040F2E732C2608361E9
:1015000002F0E0F850B900230193039301A90648C3
:1015100002F008F928B905B05DF804FBFFF7AEFD4D
:10152000F1E7FFF7ABFDF6E774010020001400407F
:1015300000B583B00368174A934205D0164A934218
:1015400015D003B05DF804FB144B9A6D42F0100205
:101550009A659B6D03F010030093009B002201210C
:10156000362001F09DFE362001F0D2FEE9E70B4B5C
:101570009A6D42F020029A659B6D03F0200301935F
:10158000019B00220121372001F08AFE372001F063
:10159000BFFED6E7001000400014004000100240DB
:1015A00070B52148214B03604FF4E13343600023C1
:1015B0008360C36003610C2242618361C361036283
:1015C0004362836203F062F908BB0021164803F00E
:1015D0001BFBF8B90021144803F03BFBE8B91248A3
:1015E00003F0F3FAE0B9124C0F4B2360114D124A8D
:1015F0004FF4FA71284604F023FD104E104A4FF4C0
:10160000FA71304604F01CFDA660656070BDFFF7FE
:1016100035FDDAE7FFF732FDDCE7FFF72FFDDEE708
:10162000FFF72CFDDFE700BF20020020003801405B
:101630002805002030090020380700202C07002052
:101640003405002008B51748174B03604FF4E13309
:10165000436000238360C36003610C2242618361A5
:10166000C36103624362836203F010F970B9002121
:101670000C4803F0C9FA60B900210A4803F0E9FAFE
:1016800050B9084803F0A1FA48B908BDFFF7F6FCC5
:10169000EDE7FFF7F3FCEFE7FFF7F0FCF1E7FFF70B
:1016A000EDFCF2E7B40200200044004008B5174802
:1016B000174B03604FF4E133436000238360C36042
:1016C00003610C2242618361C361036243628362EE
:1016D00003F0DCF870B900210C4803F095FA60B90A
:1016E00000210A4803F0B5FA50B9084803F06DFA32
:1016F00048B908BDFFF7C2FCEDE7FFF7BFFCEFE715
:10170000FFF7BCFCF1E7FFF7B9FCF2E74803002064
:101710000048004030B59DB0044600211791189153
:1017200019911A911B91442206A804F0ADFF236879
:101730005E4A934207D05E4A934238D05D4A934254
:1017400068D01DB030BD0123069306A801F0B8F89B
:1017500050BB594B1A6E42F480421A661A6E02F45C
:1017600080420092009ADA6C42F00102DA64DB6C8B
:1017700003F001030193019B4FF4C063179302230D
:101780001893002419941A9407231B9317A94FF058
:10179000904001F007FA22460121252001F080FD4A
:1017A000252001F0B5FDCCE7FFF768FCD1E7022367
:1017B000069306A801F084F848BB3F4B9A6D42F4AB
:1017C00000329A659A6D02F400320292029ADA6C43
:1017D00042F00102DA64DB6C03F001030393039B24
:1017E0000C23179302231893002419941A940723A7
:1017F0001B9317A94FF0904001F0D4F92246012124
:10180000262001F04DFD262001F082FD99E7FFF72B
:1018100035FCD2E70423069306A801F051F800280E
:101820003DD1254B9A6D42F480229A659A6D02F45F
:1018300080220492049ADA6C42F00202DA64DB6CD1
:1018400003F002030593059B4FF4406317930223B3
:101850001893002519951A9507231B9317A9174864
:1018600001F0A0F91648174B03601C234360856004
:10187000C5608023036145618561C561056201F032
:10188000E1FA78B90E4BC4F880309C620022114610
:10189000272001F005FD272001F03AFD51E7FFF771
:1018A000EDFBBEE7FFF7EAFBECE700BF00380140C5
:1018B000004400400048004000100240000400487E
:1018C000C001002008000240FEE7FEE7FEE7FEE759
:1018D000FEE770477047704708B500F0C3FB08BDCE
:1018E00008B5024801F0D9FB08BD00BFC0010020C7
:1018F00008B5024801F0F6FF08BD00BF2002002035
:1019000008B5024801F0EEFF08BD00BFB402002098
:1019100008B5024801F0E6FF08BD00BF48030020FB
:1019200008B5024801F075FD08BD00BF2801002080
:1019300008B5024801F06DFD08BD00BF740100202C
:1019400000B583B00B4B1A6E42F001021A661A6E94
:1019500002F001020092009A9A6D42F080529A655C
:101960009B6D03F080530193019B01F07FFC03B05A
:101970005DF804FB0010024003689A6912F0020F40
:1019800001D000229A6203689A6912F0010F03D114
:101990009A6942F001029A61704710B4019CC1F348
:1019A000090141EA02411943214321F00041026843
:1019B0005368640D04F4806444F07F7444F4583434
:1019C00044F47F7444F0030423EA04042143516087
:1019D0005DF8044B70472DE9F041044603689E69A9
:1019E00016F010067CD00D4690461022DA610026D3
:1019F00037462368986910F0200F30D17FBBB5F1CE
:101A0000FF3FF6D000F03AFBA0EB0800A84201D857
:101A1000002DEED121684B6803F4804394F84220F6
:101A2000D2B2886910F4004F02D00BB9202A0ED12F
:101A300023689B6913F0200FDBD100F01FFBA0EBA4
:101A400008001928F4D946F020060127D1E74B6891
:101A500043F480434B6000F011FB8046E8E70FB988
:101A60002022DA6146F0040601252268936913F406
:101A7000807F05D046F001064FF48071D1610125C9
:101A800013F4806F06D046F0080622684FF4806198
:101A9000D161012513F4007F24D046F002062368AB
:101AA0004FF40072DA6101252046FFF765FF2268D6
:101AB000536823F0FF7323F48B3323F4FF7323F075
:101AC00001035360636C1E436664202384F8413035
:101AD000002384F8423084F840302846BDE8F08185
:101AE0000025C2E7002DF8D0DEE770B504460D46AC
:101AF000164623689B6913F0020F22D1324629460D
:101B00002046FFF768FFF0B9B5F1FF3FF1D000F0D4
:101B1000B5FA801BA84201D8002DEAD123689B6941
:101B200013F0020FE5D1636C43F0200363642023BC
:101B300084F84130002384F8423084F8403001209A
:101B400000E0002070BD0120FCE72DE9F0410446D3
:101B50000F4616461D46DDF8188023689B6937EA54
:101B600003030CBF01230023B34227D14246294679
:101B70002046FFF730FF20BBB5F1FF3FEDD000F06E
:101B80007DFAA0EB0800A84201D8002DE5D123681A
:101B90009B6937EA03030CBF01230023B342DCD166
:101BA000636C43F020036364202384F841300023F6
:101BB00084F8423084F84030012000E00020BDE885
:101BC000F0810120FBE700002DE9F04182B00446DE
:101BD00090461D46089E099F194B00934FF0807355
:101BE000EAB2FFF7DAFE3A4631462046FFF77DFFBC
:101BF000F8B9012D0ED123685FFA88F29A62009736
:101C00003346002280212046FFF79FFFA8B902B08B
:101C1000BDE8F08123684FEA18229A623A463146BD
:101C20002046FFF762FF30B923685FFA88F29A62B4
:101C3000E5E70120EBE70120E9E70120E7E700BF46
:101C40000020008070B504460D46164604E0236867
:101C50009B6913F0200F12D023689B6913F0200FAB
:101C60001BD1324629462046FFF7B5FEB8B900F031
:101C700005FA801BA842EAD8002DEDD1E7E7636C96
:101C800043F020036364202384F84130002384F868
:101C9000423084F84030012000E0002070BD012077
:101CA000FCE700285FD010B5044690F84130002BC7
:101CB00048D0242384F841302268136823F00103BC
:101CC00013606368226823F070631361226893686D
:101CD00023F400439360E368012B38D0A3682268A3
:101CE00043F404439360E368022B36D022685368C0
:101CF00023F4006353602268536843F0007343F495
:101D0000004353602268D36823F40043D3602369FF
:101D100062691343A169226843EA0123D360E3693E
:101D2000216A22680B4313602268136843F00103A1
:101D3000136000206064202384F84130206384F81D
:101D4000420010BD80F84030FFF742FBB1E7A368C6
:101D5000226843F400439360C5E72268536843F464
:101D600000635360C7E7012070472DE9F04F83B04F
:101D70000E46BDF834A00E9D90F84110C9B220293E
:101D800040F0BB800446904699460C9BCBB1BAF11B
:101D9000000F16D090F84030012B00F0B2804FF0C9
:101DA000010B80F840B000F069F907460090192354
:101DB0005A464FF400412046FFF7C7FE30B10120DC
:101DC0009CE04FF400736364012097E0212384F8C2
:101DD0004130402384F84230002363640C9A6262ED
:101DE000A4F82AA06363019700954B46424631460A
:101DF0002046FFF7E9FE70B9638D9BB2FF2B0FD928
:101E0000FF222285002300934FF080733146204645
:101E1000FFF7C3FD21E0002384F8403058466DE011
:101E2000628D92B22285002300934FF00073D2B2EC
:101E300031462046FFF7B1FD0FE0628D92B2228558
:101E4000002300934FF00073D2B231462046FFF7D3
:101E5000A4FD638D9BB2002B33D03A462946204621
:101E6000FFF743FE00284ED1626A236812789A6217
:101E7000636A01336362638D9BB2013B9BB26385EE
:101E8000238D013B9BB22385628D92B2002AE0D064
:101E9000002BDED100972B46002280212046FFF741
:101EA00054FE90BB638D9BB2FF2BC6D9FF222285C7
:101EB000002300934FF0807331462046FFF76DFDFD
:101EC000C7E73A4629462046FFF7BCFEF8B9236823
:101ED0002022DA6121684B6823F0FF7323F48B33EF
:101EE00023F4FF7323F001034B6084F841200023A7
:101EF00084F8423084F8403000E0022003B0BDE8AE
:101F0000F08F0220FAE70120F8E70120F6E7012030
:101F1000F4E790F84130DBB2202B24D190F8403028
:101F2000012B22D0012380F84030242380F8413057
:101F30000268136823F0010313600268136823F436
:101F400080531360026813681943116002681368B4
:101F500043F001031360202380F84130002380F810
:101F6000403018467047022070470220704790F8B2
:101F70004130DBB2202B22D190F84030012B20D011
:101F8000012380F84030242380F841300268136830
:101F900023F0010313600268136823F4706343EABB
:101FA000012111600268136843F0010313602023CC
:101FB00080F84130002380F84030184670470220F6
:101FC000704702207047000082B0084A116E41F04D
:101FD00001011166126E02F001020192019B044A96
:101FE00053680343536002B0704700BF00100240C3
:101FF00000000140104B1B680BB90120704710B561
:1020000004464FF47A70B0FBF3F30C4A1068B0FB4F
:10201000F3F001F08BF968B90F2C01D901200AE027
:10202000002221464FF0FF3001F03AF9044B1C60CA
:10203000002000E0012010BD040000200C00002062
:102040000800002010B5032001F018F90F20FFF759
:10205000D1FF10B10124204610BD0446FFF770FCEB
:10206000F9E70000034A1368034909680B44136049
:10207000704700BFDC03002004000020014B1868FB
:10208000704700BFDC03002038B50446FFF7F6FFB9
:102090000546B4F1FF3F02D0044B1B681C44FFF718
:1020A000EDFF401BA042FAD338BD00BF0400002062
:1020B000124BDA6802F00302D868C0F30310431C25
:1020C000032A11D00E48B0FBF3F00C4BDB68C3F3CE
:1020D000062303FB00F0094BDB68C3F341630133C4
:1020E0005B00B0FBF3F070470648B0FBF3F0034B26
:1020F000DB68C3F3062303FB00F0ECE700100240AB
:102100000024F40000127A00002800F04F8270B51D
:1021100082B00446036813F0010F37D0A44A9368D5
:1021200003F00C03D26802F003020C2B23D0082B1F
:1021300023D06368B3F5803F4ED0B3F5A02F51D0C4
:102140009B4B1A6822F480321A601A6822F48022AB
:102150001A606368002B52D0FFF790FF0546944B3E
:102160001B6813F4003F11D1FFF788FF401B642860
:10217000F5D9032023E2032AD9D18D4B1B6813F430
:10218000003F03D06368002B00F01282236813F035
:10219000020F5DD0864A936803F00C03D26802F008
:1021A00003020C2B3AD0042B3AD0E368002B75D0F5
:1021B0007F4A136843F480731360FFF75FFF05469F
:1021C0007B4B1B6813F4806F5FD1FFF757FF401BF9
:1021D0000228F5D90320F2E1754A136843F48033ED
:1021E0001360B6E703F18043A3F53C331A6842F469
:1021F00080221A601A6842F480321A60A9E7FFF759
:102200003DFF05466A4B1B6813F4003FBED0FFF745
:1022100035FF401B6428F5D90320D0E1022AC2D142
:10222000634B1B6813F4806F03D0E368002B00F04E
:10223000C1815F4A536823F0FE43216943EA016389
:1022400053605C4B1868FFF7D5FE002840F0B4815E
:10225000236813F0080F4CD063699BB3544AD2F83B
:10226000943043F00103C2F89430FFF707FF0546AE
:102270004F4BD3F8943013F0020F3AD1FFF7FEFE24
:10228000401B0228F4D9032099E1494A536823F0FE
:10229000FE43216943EA01635360D9E7444A136866
:1022A00023F480731360FFF7E9FE0546404B1B687B
:1022B00013F4806FCCD0FFF7E1FE401B0228F5D964
:1022C00003207CE13A4AD2F8943023F00103C2F8AB
:1022D0009430FFF7D3FE0546354BD3F8943013F016
:1022E000020F06D0FFF7CAFE401B0228F4D90320D4
:1022F00065E1236813F0040F00F081802C4B9B6D87
:1023000013F0805F36D12A4B9A6D42F080529A6565
:102310009B6D03F080530193019B0125264B1B68A5
:1023200013F4807F28D0A368012B39D0052B45D02A
:102330001F4BD3F8902022F00102C3F89020D3F86D
:10234000902022F00402C3F89020A368002B43D011
:10235000FFF794FE0646164BD3F8903013F0020FA9
:102360004CD1FFF78BFE801B41F288339842F2D9A3
:10237000032024E10025D1E70F4A136843F480735A
:102380001360FFF77BFE06460B4B1B6813F4807F40
:10239000C9D1FFF773FE801B0228F5D903200EE197
:1023A000034AD2F8903043F00103C2F89030CCE7F2
:1023B000001002400800002000700040884BD3F855
:1023C000902042F00402C3F89020D3F8902042F00D
:1023D0000102C3F89020B8E7FFF750FE0646804B95
:1023E000D3F8903013F0020F08D0FFF747FE801BA0
:1023F00041F288339842F2D90320E0E0E5B923683E
:1024000013F0200F35D0A369E3B1754AD2F89830A4
:1024100043F00103C2F89830FFF730FE0546704BD9
:10242000D3F8983013F0020F23D1FFF727FE401B9B
:102430000228F4D90320C2E0694A936D23F0805347
:102440009365DCE7664AD2F8983023F00103C2F8BE
:102450009830FFF713FE0546614BD3F8983013F020
:10246000020F06D0FFF70AFE401B0228F4D9032012
:10247000A5E0E369002B00F0A180594A926802F0C0
:102480000C020C2A64D0022B13D0554A136823F097
:1024900080731360FFF7F2FD0446514B1B6813F085
:1024A000007F4ED0FFF7EAFD001B0228F5D903207C
:1024B00085E04B4A136823F080731360FFF7DEFD5D
:1024C0000546474B1B6813F0007F06D0FFF7D6FD8B
:1024D000401B0228F5D9032071E0414AD3684149E5
:1024E0001940236A606A013843EA0013A06A43EA8C
:1024F0000023206B4008013843EA4053606B4008DA
:10250000013843EA4063E06A43EAC0630B43D360A7
:10251000136843F080731360D36843F08073D36013
:10252000FFF7ACFD04462E4B1B6813F0007F06D16D
:10253000FFF7A4FD001B0228F5D903203FE000208F
:102540003DE0274AD168284B0B40D360002036E09D
:10255000012B36D0224BDB6803F00301226A914243
:1025600031D103F0F002616A0139B2EB011F2CD1C5
:1025700003F4FE42A16AB2EB012F28D103F07842A6
:10258000E16AB2EBC16F24D103F4C001226B52089F
:10259000013AB1EB425F1ED103F0C063626B520897
:1025A000013AB3EB426F18D1002008E001207047D8
:1025B000012004E0012002E0012000E0002002B040
:1025C00070BD0120FBE70120F9E70120F7E70120BA
:1025D000F5E70120F3E70120F1E70120EFE700BF75
:1025E000001002400C809F01FCFFEEFE1E4B9B681A
:1025F00003F00C03042B33D01B4B9B6803F00C033C
:10260000082B2FD0184B9B6803F00C030C2B01D028
:1026100000207047144BDA6802F00302D868C0F358
:102620000310431C032A11D01048B0FBF3F00E4BEB
:10263000DB68C3F3062303FB00F00B4BDB68C3F33B
:10264000416301335B00B0FBF3F070470848B0FB17
:10265000F3F0054BDB68C3F3062303FB00F0ECE764
:102660000248704702487047001002400024F400FE
:1026700000127A00002800F0E680F8B50C46054606
:10268000744B1B6803F00F038B420BD2714A136823
:1026900023F00F030B431360136803F00F038B4207
:1026A00040F0D3802E6816F001065FD06B68032BD4
:1026B0002FD0022B4DD0684B1B6813F4806F00F0B5
:1026C000C680FFF793FF654B98424DD9624A9368E5
:1026D00023F0F00343F08003936080265E4A936802
:1026E00023F0030369680B439360FFF7C7FC0746B9
:1026F000594B9B6803F00C036A68B3EB820F35D02B
:10270000FFF7BCFCC01B41F288339842F0D903208C
:1027100078E0514B1B6813F0007F01D1012071E07C
:10272000FFF7C6FC4D4B98421AD94B4B9B6813F0F0
:10273000F00F05D02E6816F00206CFD0AB688BB92B
:10274000454A936823F0F00343F0800393608026AA
:10275000C4E7414B1B6813F4003FB2D1012051E0A4
:102760000026BBE70026B9E70026B7E72B6813F081
:10277000020F48D013F0040F04D0374A936843F493
:10278000E06393602B6813F0080F06D0324A936819
:1027900023F47C5343F4E06393602F4A936823F05F
:1027A000F003A9680B4393602A4B1B6803F00F03E7
:1027B000A34230D82B6813F0040F06D0264A936842
:1027C00023F4E063E9680B4393602B6813F0080F70
:1027D00007D0214A936823F46053296943EAC1036F
:1027E0009360FFF703FF1C4B9B68C3F303131C4A62
:1027F000D35C03F01F03D8401A4B18601A4B1868BB
:10280000FFF7F8FBF8BD802ECED1134A936823F072
:10281000F0039360C8E70F4A136823F00F032343C4
:102820001360FFF72BFC06460A4B1B6803F00F03EF
:10283000A342BFD0FFF722FC801B41F288339842AD
:10284000F2D90320DEE7012070470120DAE70120FA
:10285000D8E700BF002002400010024000B4C404CA
:10286000B46F00080C00002008000020014B18681D
:10287000704700BF0C00002008B5FFF7F7FF054BBD
:102880009B68C3F30223044AD35C03F01F03D840C0
:1028900008BD00BF00100240C46F000808B5FFF774
:1028A000E5FF054B9B68C3F3C223044AD35C03F0E6
:1028B0001F03D84008BD00BF00100240C46F0008CD
:1028C000F0B583B00446036813F4002F69D0AE4B13
:1028D0009B6D13F0805F1ED1AB4B9A6D42F080521E
:1028E0009A659B6D03F080530193019B0126A74AD3
:1028F000136843F480731360FFF7C0FB0546A34BD6
:102900001B6813F4807F08D1FFF7B8FB401B022837
:10291000F5D9032502E00026E9E7002545BB9A4BDF
:10292000D3F8903013F4407315D0226C9A4212D031
:10293000954AD2F8903023F44073D2F8901041F4C5
:102940008031C2F89010D2F8901021F48031C2F892
:102950009010C2F8903013F0010F10D145B98A4A97
:10296000D2F8903023F44073216C0B43C2F89030BE
:10297000C6B1854A936D23F08053936512E0FFF74B
:102980007DFB0746804BD3F8903013F0020FE5D162
:10299000FFF774FBC01B41F288339842F2D903253C
:1029A000DCE70025236813F0010F08D0764AD2F83F
:1029B000883023F0030361680B43C2F88830236832
:1029C00013F0020F08D0704AD2F8883023F00C03BD
:1029D000A1680B43C2F88830236813F0040F08D0B5
:1029E000694AD2F8883023F03003E1680B43C2F81B
:1029F0008830236813F0080F08D0634AD2F8883073
:102A000023F0C00321690B43C2F88830236813F018
:102A1000200F08D05C4AD2F8883023F44063616903
:102A20000B43C2F88830236813F0400F08D0564A91
:102A3000D2F8883023F44053A1690B43C2F88830A0
:102A4000236813F0800F08D04F4AD2F8883023F45F
:102A50004043E1690B43C2F88830236813F4807F58
:102A600008D0494AD2F8883023F44033216A0B4316
:102A7000C2F88830236813F4007F08D0424AD2F8A5
:102A8000883023F44023616A0B43C2F888302368FE
:102A900013F4806F0CD03C4AD2F8883023F44013F2
:102AA000A16A0B43C2F88830A36AB3F5801F57D0E0
:102AB000236813F4006F0CD0334AD2F8883023F423
:102AC0004003E16A0B43C2F88830E36AB3F5800F34
:102AD0004BD0236813F4805F0CD02B4AD2F8883097
:102AE00023F04073216B0B43C2F88830236BB3F1A2
:102AF000807F3FD0236813F4005F0CD0224AD2F8C5
:102B0000883023F04063616B0B43C2F88830636BFD
:102B1000B3F1006F33D0236813F4804F0CD01A4AFE
:102B2000D2F8883023F04063A16B0B43C2F88830A1
:102B3000A36BB3F1006F2BD0236813F4004F0CD0BC
:102B4000114AD2F8883023F04053E16B0B43C2F8AE
:102B50008830E36BB3F1805F1FD0284603B0F0BD2F
:102B6000D36843F48013D360A2E7D36843F480139F
:102B7000D360AEE7D36843F48013D360BAE7D36879
:102B800043F48013D360C6E7001002400070004099
:102B9000D36843F48013D360CEE7D36843F4803323
:102BA000D360DAE7F0B583B0002362E085685E00A9
:102BB0000324B44025EA0405CC68B4402C43846067
:102BC000446824EA0C0C4C68C4F300149C4044EAAA
:102BD0000C0444605EE0DD08083550F8256003F021
:102BE00007044FEA840C0F2404FA0CF426EA040EBE
:102BF0000C6904FA0CF444EA0E0440F8254060E045
:102C0000052400E0002404FA0EF42C430CF1020C1D
:102C1000554D45F82C40554CA568D44325EA02068D
:102C20004F6817F4801F01D042EA05064F4DAE6091
:102C3000ED6804EA05064F6817F4001F01D042EA68
:102C400005064A4DEE606D6804EA05064F6817F404
:102C5000003F01D042EA0506444D6E602D682C40CD
:102C60004E6816F4803F01D042EA05043F4A1460E2
:102C700001330A6832FA03F474D04FF0010C0CFAF5
:102C800003FC1CEA0202F3D04C6804F00304013C8C
:102C9000012C8BD94C6804F00304032C0CD0C468BD
:102CA0005D004FF0030C0CFA05FC24EA0C0C8C6858
:102CB000AC4044EA0C04C4604C6804F00304022CE9
:102CC00089D004684FEA430E4FF0030C0CFA0EFC57
:102CD00024EA0C0C4C6804F0030404FA0EF444EAF1
:102CE0000C0404604C6814F4403FC1D0204C256EA5
:102CF00045F001052566246E04F001040194019C51
:102D00004FEA930C0CF10205174C54F8255003F0D0
:102D100003044FEA840E0F2404FA0EF425EA040596
:102D2000B0F1904F3FF46EAF124CA04212D004F5B8
:102D30008064A04210D004F58064A0420ED004F557
:102D40008064A0420CD004F58064A0423FF458AFE8
:102D5000062458E7012456E7022454E7032452E7E7
:102D6000042450E703B0F0BD00000140000401401E
:102D700000100240000400480369194201D00120FC
:102D80007047002070470AB18161704781627047C7
:102D900030B4C46C056D6560446D14B1846DC56D4F
:102DA0006560446C04F01F0C012404FA0CF4056CFB
:102DB0006C60046863608368102B05D003689960B9
:102DC0000368DA6030BC704703689A600368D960B2
:102DD000F8E7000003680C4A934213D80B49DBB2B2
:102DE000083B0B4AA2FB0323426C22F003020A4475
:102DF0008264084AC264C3F30413012202FA03F393
:102E0000036570470449EAE70704024000080240EE
:102E1000CDCCCCCC80080240200802400379074A80
:102E20001A4492004265064A8265013B03F01F0383
:102E3000012202FA03F3C365704700BF3F8200100E
:102E40004009024000285BD010B5044601682D4BB4
:102E500099423DD82C4B0B442C4AA2FB03231B095F
:102E60009B0043642A4B0364022384F825300A68DC
:102E700022F4FF4222F07002A368E0680343206955
:102E8000034360690343A0690343E0690343206A85
:102E9000034313430B602046FFF79CFFA368B3F581
:102EA000804F20D0A36C22791A60E36C226D5A60A7
:102EB0006368013B032B19D900236365A365E365B0
:102EC0000020E063012384F8253084F8240010BD3D
:102ED000104B0B440D4AA2FB03231B099B004364C8
:102EE0000D4B0364C0E700236360DBE72046FFF778
:102EF00095FF636D00221A60A36DE26D5A60DFE7F3
:102F00000120704707040240F8FFFDBFCDCCCCCCB8
:102F100000000240F8FBFDBF0004024038B5044643
:102F200090F82400012841D0012084F8240094F86E
:102F30002500C0B2012804D0002384F824300220E8
:102F400038BD022084F825000020E0632568286849
:102F500020F0010028602046FFF71AFF236BD3B151
:102F60002268136843F00E031360A36C1A6812F40E
:102F7000803F03D01A6842F480721A60636D1BB1FF
:102F80001A6842F480721A602268136843F00103E1
:102F900013600020D4E72268136823F00403136051
:102FA0002268136843F00A031360DEE70220C7E7D4
:102FB000034690F82520D2B2022A09D00422C26327
:102FC0000120012283F82520002283F82420704765
:102FD00001680A6822F00E020A60816C0A6822F415
:102FE00080720A6001680A6822F001020A60426C7D
:102FF00002F01F01006C01228A404260DA6C196DF8
:1030000051605A6D42B1116821F4807111609A6D5E
:10301000D96D51600020D4E70020D2E708B590F8C0
:103020002530DBB2022B09D00423C363012380F8CF
:103030002530002280F82420184608BD0268136855
:1030400023F00E0313600268136823F0010313607A
:10305000826C136823F480731360436C03F01F02C7
:10306000016C012393404B60C36C026D5A60436D49
:1030700033B11A6822F480721A60836DC26D5A608F
:10308000012380F82530002380F82430836B13B1AE
:1030900098470020D1E70020CFE738B5036C1968C6
:1030A00004682568436C03F01F0304229A400A4217
:1030B00015D015F0040F12D0236813F0200F03D1A0
:1030C000236823F004032360436C03F01F02016CA8
:1030D000042393404B60036B03B1984738BD022231
:1030E0009A400A421CD015F0020F19D0236813F041
:1030F000200F06D1236823F00A032360012380F800
:103100002530436C03F01F02016C022393404B6097
:10311000002380F82430C36A002BDFD09847DDE716
:10312000082202FA03F30B42D8D015F0080FD5D0CD
:10313000236823F00E032360436C03F01F03016C2C
:10314000012202FA03F34B60C26380F825200023BA
:1031500080F82430436B002BC0D09847BEE70000B6
:10316000002836D13E4B1B6803F4C063B3F5806F73
:1031700008D03B4AD2F8803023F48073C2F8803004
:1031800000207047364AD2F8803023F48073C2F8AA
:103190008030136823F4C06343F400731360314B31
:1031A0001B68322202FB03F32F4AA2FB03239B0C72
:1031B000013300E0013B2A4A526912F4806F01D0CA
:1031C000002BF7D1264B5B6913F4806F44D10020AC
:1031D0007047B0F5007F08D0214A136823F4C0631C
:1031E00043F480631360002070471D4B1B6803F499
:1031F000C063B3F5806F08D0194AD2F8803043F429
:103200008073C2F8803000207047154AD2F88030B1
:1032100043F48073C2F88030136823F4C06343F42E
:10322000007313600F4B1B68322202FB03F30E4A3C
:10323000A2FB03239B0C013300E0013B084A5269C7
:1032400012F4806F01D0002BF7D1054B5B6913F4AA
:10325000806F03D100207047032070470320704720
:10326000007000400C00002083DE1B43024A93687C
:1032700043F480439360704700700040074AD3686E
:1032800023F4E0631B041B0C000200F4E060034322
:1032900043F0BF6343F40033D360704700ED00E0B8
:1032A00000B5194BDB68C3F30223C3F1070CBCF173
:1032B000040F28BF4FF0040C03F1040EBEF1060FFB
:1032C00018D9033B4FF0FF3E0EFA0CFC21EA0C012B
:1032D00099400EFA03F322EA0303194300280BDB9B
:1032E0000901C9B200F1604000F5614080F80013A7
:1032F0005DF804FB0023E5E700F00F000901C9B207
:10330000024B1954F4E700BF00ED00E014ED00E0BB
:10331000002807DB00F01F02400901239340024A06
:1033200042F82030704700BF00E100E00138B0F102
:10333000807F0BD24FF0E0235861054AF02182F8DC
:1033400023100020986107221A61704701207047FE
:1033500000ED00E090F83D30DBB2012B32D10223CA
:1033600080F83D300268D36843F00103D3600368FE
:10337000174A934218D0B3F1804F15D0A2F594327A
:10338000934211D002F5806293420DD002F596323D
:10339000934209D002F54062934205D01A6842F088
:1033A00001021A600020704799680A4A0A40062AFA
:1033B0000AD0B2F5803F09D01A6842F001021A60C3
:1033C00000207047012070470020704700207047A0
:1033D000002C0140070001000268D36823F00103BC
:1033E000D3600368196A41F21112114208D1196AB7
:1033F00044F24442114203D11A6822F001021A60D9
:10340000012380F83D3000207047704770477047B7
:10341000704770B505460368DE681C6914F0020F3A
:1034200010D016F0020F0DD06FF002021A610123C6
:10343000037703689B6913F0030F7CD0FFF7E6FF67
:1034400000232B7714F0040F12D016F0040F0FD0C6
:103450002B686FF004021A6102232B772B689B699B
:1034600013F4407F6DD02846FFF7D0FF00232B7761
:1034700014F0080F12D016F0080F0FD02B686FF061
:1034800008021A6104232B772B68DB6913F0030F02
:103490005ED02846FFF7BAFF00232B7714F0100FF9
:1034A00012D016F0100F0FD02B686FF010021A61B7
:1034B00008232B772B68DB6913F4407F4FD0284615
:1034C000FFF7A4FF00232B7714F0010F02D016F0B2
:1034D000010F4BD114F4025F02D016F0800F4DD1D2
:1034E00014F4807F02D016F0800F4FD114F0400FFB
:1034F00002D016F0400F51D114F0200F02D016F078
:10350000200F53D114F4801F02D016F4801F55D120
:1035100014F4001F02D016F4001F57D114F4800FCA
:1035200002D016F4800F59D114F4000F02D016F413
:10353000000F5BD170BDFFF768FF2846FFF767FFFC
:103540007EE72846FFF761FF2846FFF760FF8DE71B
:103550002846FFF75AFF2846FFF759FF9CE7284601
:10356000FFF753FF2846FFF752FFABE72B686FF0DA
:1035700001021A612846FDF733FDABE72B686FF4B3
:1035800002521A61284600F018F9A9E72B686FF477
:1035900080721A61284600F011F9A7E72B686FF0D6
:1035A00040021A612846FFF733FFA5E72B686FF04A
:1035B00020021A61284600F0FFF8A3E72B686FF499
:1035C00080121A61284600F0FAF8A1E72B686FF420
:1035D00000121A61284600F0F3F89FE72B686FF499
:1035E00080021A61284600F0ECF89DE72B686FF422
:1035F00000021A61284600F0E5F89BE70368304AAC
:1036000090420ED0B0F1804F0BD0A2F59432904290
:1036100007D002F58062904203D002F596329042C4
:1036200003D123F070034A681343254A90421AD00D
:10363000B0F1804F17D0A2F59432904213D002F52A
:10364000806290420FD002F5963290420BD002F584
:103650004062904207D002F58062904203D002F5AA
:103660008062904203D123F44073CA68134323F06D
:1036700080034A69134303608B68C3620B688362EB
:103680000F4B98420FD003F5006398420BD003F51F
:103690004063984207D003F58063984203D003F556
:1036A0008063984201D10B6903630123436103697D
:1036B00013F0010F03D0036923F001030361704786
:1036C000002C014060B310B5044690F83D3013B3B0
:1036D000022384F83D30214651F8040BFFF78EFF9A
:1036E000012384F8483084F83E3084F83F3084F871
:1036F000403084F8413084F8423084F8433084F814
:10370000443084F8453084F8463084F8473084F8F3
:103710003D30002010BD80F83C30FDF709FFD7E7B1
:103720000120704790F83C30012B40D030B4012389
:1037300080F83C30022380F83D300268536894687A
:103740001C4DAA4203D005F50065AA4203D123F41B
:1037500070034D682B4323F0007323F070030D6852
:103760002B4353600368134A934212D0B3F1804F46
:103770000FD0A2F5943293420BD002F580629342AF
:1037800007D002F59632934203D002F5406293428D
:1037900004D124F080048A6814439C60012380F8DB
:1037A0003D30002380F83C30184630BC7047022082
:1037B000704700BF002C014070477047704770474A
:1037C000704770477047026852E8003F23F0C0031B
:1037D00042E800310029F6D1026802F1080353E8FB
:1037E000003F23F40003083242E800310029F3D1FE
:1037F0002023C0F888307047026852E8003F23F465
:10380000907342E800310029F6D1026802F1080302
:1038100053E8003F23F0805323F00103083242E8CD
:1038200000310029F1D1C36E012B06D02023C0F84E
:103830008C300023C36643677047026852E8003F3C
:1038400023F0100342E800310029F6D1EEE770477B
:1038500008B5026852E8003F23F0400342E8003117
:103860000029F6D12023C0F8883000238367FFF7B2
:10387000EEFF08BD7047704738B5846AD4F88820D9
:10388000D4F88C5023689B6813F0800F01D0212A54
:1038900010D023689B6813F0400F01D0222D10D068
:1038A000D4F8903043F01003C4F890302046FFF76E
:1038B000E2FF38BD0023A4F856302046FFF783FF0F
:1038C000E7E70023A4F85E302046FFF795FFE7E71F
:1038D00008B5806A0023A0F85E30FFF7CCFF08BD72
:1038E0007047000070B504460168CB6908688D68B0
:1038F00040F60F021A4008D113F0200F05D010F047
:10390000200F34D115F0805F31D12AB1A04A2A406E
:1039100033D1A04E304230D1E26E012A00F0C68091
:1039200013F4801F03D015F4800F40F0738113F05F
:10393000800F07D010F0800F40F0738115F4000F56
:1039400040F06F8113F0400F03D010F0400F40F0B3
:103950006F8113F4000F03D010F0804F40F06C81A2
:1039600013F0807F02D00028C0F26A8170BD636FBF
:10397000002BFBD020469847F8E713F0010F09D041
:1039800010F4807F06D001260E62D4F890103143E7
:10399000C4F8901013F0020F0BD015F0010F08D0EF
:1039A000216802260E62D4F8901041F00401C4F898
:1039B000901013F0040F0BD015F0010F08D0216800
:1039C00004260E62D4F8901041F00201C4F8901061
:1039D00013F0080F0BD010F0200F00D13AB122687D
:1039E00008211162D4F890200A43C4F8902013F4FF
:1039F000006F0CD010F0806F09D022684FF4006186
:103A00001162D4F8902042F02002C4F89020D4F83B
:103A10009020002AAAD013F0200F09D010F0200F18
:103A200002D115F0805F03D0636F0BB12046984739
:103A3000D4F8902023689B6813F0400F02D112F055
:103A4000280F2CD02046FFF7D7FE23689B6813F081
:103A5000400F20D0226802F1080353E8003F23F012
:103A60004003083242E800310029F3D1D4F8803015
:103A70006BB1494A9A63D4F88000FFF7CFFA002867
:103A80003FF474AFD4F88000836B98476EE720460C
:103A9000FFF7F1FE6AE72046FFF7EDFE66E72046F6
:103AA000FFF7E9FE0023C4F890305FE713F0100F32
:103AB0003FF436AF10F0100F3FF432AF10230B621B
:103AC00023689B6813F0400F68D0D4F880100A6810
:103AD00053689BB2002B4AD0B4F85C00984246D998
:103AE000A4F85E300B681B6813F0200F32D12268F7
:103AF00052E8003F23F4807342E800310029F6D1F8
:103B0000226802F1080353E8003F23F00103083262
:103B100042E800310029F3D1226802F1080353E89A
:103B2000003F23F04003083242E800310029F3D17E
:103B30002023C4F88C300023E366226852E8003F5B
:103B400023F0100342E800310029F6D1D4F88000B8
:103B5000FFF72EFA02232367B4F85C10B4F85E3046
:103B60009BB2C91A89B22046FFF7BAFEFEE6B4F846
:103B70005C1099427FF4FAAE136813F0200F3FF403
:103B8000F5AE022323672046FFF7AAFEEEE600BF4C
:103B90000100001020010004D1380008B4F85C10C6
:103BA000B4F85E309BB2C91A89B2B4F85E309BB2E9
:103BB000002B3FF4DBAE00293FF4D8AE226852E878
:103BC000003F23F4907342E800300028F6D12268C9
:103BD00002F1080353E8003F23F0805323F0010370
:103BE000083242E800300028F1D12023C4F88C309C
:103BF0000023E3666367226852E8003F23F0100366
:103C000042E800300028F6D1022323672046FFF760
:103C100067FEABE64FF480130B62204600F0D2FF44
:103C2000A4E6A36F002B3FF4A1AE204698479DE683
:103C30002046FFF70DFE99E6204600F0C5FF95E609
:103C4000204600F0C0FF91E608B5B0F86030D0F82B
:103C50008C20222A05D00268936943F008039361FF
:103C600008BD0268516ADBB2826D0B401370836D30
:103C700001338365B0F85E309BB2013B9BB2A0F884
:103C80005E30B0F85E309BB2002BE9D1026852E89A
:103C9000003F23F4907342E800310029F6D1026816
:103CA00002F1080353E8003F23F00103083242E821
:103CB00000310029F3D12023C0F88C300023436762
:103CC00003670368164A93420CD05B6813F4000F35
:103CD00008D0026852E8003F23F0806342E80031D8
:103CE0000029F6D1C36E012B16D10023C3660268EA
:103CF00052E8003F23F0100342E800310029F6D1DA
:103D00000368DA6912F0100F01D010221A62B0F8BD
:103D10005C10FFF7E5FDA3E7FCF7E2FFA0E700BFBB
:103D20000080004008B5B0F86020D0F88C30222B1D
:103D300005D00268936943F00803936108BD0368E6
:103D40005B6A816D13400B80836D02338365B0F82D
:103D50005E309BB2013B9BB2A0F85E30B0F85E30A3
:103D60009BB2002BEAD1026852E8003F23F4907323
:103D700042E800310029F6D1026802F1080353E855
:103D8000003F23F00103083242E800310029F3D15B
:103D90002023C0F88C300023436703670368164A6A
:103DA00093420CD05B6813F4000F08D0026852E80D
:103DB000003F23F0806342E800310029F6D1C36E52
:103DC000012B16D10023C366026852E8003F23F09E
:103DD000100342E800310029F6D10368DA6912F0D5
:103DE000100F01D010221A62B0F85C10FFF778FDB6
:103DF000A4E7FCF775FFA1E7008000402DE9F84338
:103E0000B0F860500368D3F81C90D3F800809F6826
:103E1000D0F88C20222A05D09A6942F008029A61D3
:103E2000BDE8F8830446B0F8686008E0D4F8903044
:103E3000002B4DD1B4F85E309BB2002B4FD0002E3A
:103E400000F0958019F0200F00F091802368596AE6
:103E5000EBB2A26D0B401370A36D0133A365B4F8F0
:103E60005E309BB2013B9BB2A4F85E302368D3F86E
:103E70001C9019F0070FDDD019F0010F09D018F4CC
:103E8000807F06D001221A62D4F890301343C4F820
:103E9000903019F0020F0BD017F0010F08D02368F3
:103EA00002221A62D4F8903043F00403C4F8903030
:103EB00019F0040FBAD017F0010FB7D0236804220D
:103EC0001A62D4F8903043F00203C4F89030ADE7A2
:103ED0002046FFF7D0FC0023C4F89030AAE7226800
:103EE00052E8003F23F4807342E800310029F6D104
:103EF000226802F1080353E8003F23F0805323F0C7
:103F00000103083242E800310029F1D12023C4F82E
:103F10008C300023636723672368284A93420CD0C0
:103F20005B6813F4000F08D0226852E8003F23F0CA
:103F3000806342E800310029F6D1E36E012B39D1CC
:103F40000023E366226852E8003F23F0100342E8B2
:103F500000310029F6D12368DA6912F0100F01D080
:103F600010221A62B4F85C102046FFF7B9FCB4F8CE
:103F70005E309BB2002B3FF453AFB4F868209A42F6
:103F80007FF64EAF226802F1080353E8003F23F0AA
:103F90008053083242E800310029F3D1084B6367AF
:103FA000226852E8003F43F0200342E80031002934
:103FB000F6D135E72046FCF793FED8E700800040B5
:103FC000493C00082DE9F843B0F860500368D3F885
:103FD0001C90D3F800809F68D0F88C20222A05D04E
:103FE0009A6942F008029A61BDE8F8830446B0F885
:103FF000686008E0D4F89030002B4CD1B4F85E3003
:104000009BB2002B4ED0002E00F0948019F0200FB0
:1040100000F0908023685B6AA26D2B401380A36D33
:104020000233A365B4F85E309BB2013B9BB2A4F8A7
:104030005E302368D3F81C9019F0070FDED019F01A
:10404000010F09D018F4807F06D001221A62D4F83B
:1040500090301343C4F8903019F0020F0BD017F0D2
:10406000010F08D0236802221A62D4F8903043F07E
:104070000403C4F8903019F0040FBBD017F0010FFF
:10408000B8D0236804221A62D4F8903043F00203B7
:10409000C4F89030AEE72046FFF7EDFB0023C4F8EC
:1040A0009030ABE7226852E8003F23F4807342E887
:1040B00000310029F6D1226802F1080353E8003FDD
:1040C00023F0805323F00103083242E80031002935
:1040D000F1D12023C4F88C30002363672367236861
:1040E000284A93420CD05B6813F4000F08D0226872
:1040F00052E8003F23F0806342E800310029F6D106
:10410000E36E012B39D10023E366226852E8003FB9
:1041100023F0100342E800310029F6D12368DA6960
:1041200012F0100F01D010221A62B4F85C10204671
:10413000FFF7D6FBB4F85E309BB2002B3FF454AFD0
:10414000B4F868209A427FF64FAF226802F1080364
:1041500053E8003F23F08053083242E80031002941
:10416000F3D1094B6367226852E8003F43F0200314
:1041700042E800310029F6D136E72046FCF7B0FDD1
:10418000D8E700BF00800040253D000808B5806AE0
:1041900001230367C36E012B02D0FFF76BFB08BD41
:1041A000B0F85C104908FFF79BFBF8E708B5034639
:1041B000806A1B681B6813F0200F29D10023A0F828
:1041C0005E30026852E8003F23F4807342E8003119
:1041D0000029F6D1026802F1080353E8003F23F0FA
:1041E0000103083242E800310029F3D1026802F1EC
:1041F000080353E8003F23F04003083242E800314F
:104200000029F3D12023C0F88C30C36E012B07D0D6
:1042100000230367C36E012B0CD0FCF761FD08BDC2
:10422000026852E8003F23F0100342E80031002901
:10423000F6D1EDE7B0F85C10FFF752FBEFE70000B6
:1042400070B50446016883680269134342691343E9
:10425000C269134308688B4A024013430B6022680B
:10426000536823F44053E1680B435360A16922680B
:10427000854B9A4201D0236A1943936823F06E4319
:1042800023F430630B4393602268D36A23F00F0357
:10429000616A0B43D36223687C4A934223D07C4AF1
:1042A000934234D07B4A93424AD07B4A934259D0BE
:1042B000754A934268D0102273498B4200F0958072
:1042C000E069B0F5004F00F0D280082A00F24F817B
:1042D000DFE812F01201340110014D0137014D01E8
:1042E0004D014D013A0102F55842D2F8882002F002
:1042F0000302032A09D8DFE802F002045C06012267
:10430000DAE70422D8E70822D6E71022D4E702F53C
:10431000E632D2F8882002F00C020C2A0ED8DFE830
:1043200002F0070D0D0D090D0D0D4A0D0D0D0B00C1
:104330000022C1E70422BFE70822BDE71022BBE745
:1043400002F5E432D2F8882002F03002202A34D07C
:1043500004D8A2B3102A34D10422ADE7302A32D1D6
:104360000822A9E702F5E232D2F8882002F0C00262
:10437000802A2AD004D852B3402A2AD104229BE7AB
:10438000C02A28D1082297E702F5C832D2F888203F
:1043900002F44062B2F5006F1FD005D8FAB1B2F551
:1043A000806F1ED1042287E7B2F5406F1BD108222F
:1043B00082E7022280E702227EE702227CE70022D7
:1043C0007AE7102278E7102276E7022274E70022CB
:1043D00072E7102270E710226EE702226CE70022DB
:1043E0006AE7102268E7102266E7082A00F2AF8029
:1043F000DFE802F008AD3BAD38ADADAD05004FF4E0
:10440000004004E0FEF738FA002800F0A280626A5B
:10441000224B33F81220B0FBF2F3656805EB45013F
:10442000994200F29880B3EB053F00F29680002697
:1044300033463146FCF7D2FA090241EA1061000224
:104440006B08C0182A46334641F10001FCF7C6FA52
:10445000A0F54072124B9A4200F281802368D86026
:10446000304662E0FEF7C2F8CEE70E48CFE7082AF2
:1044700077D8DFE802F0193905763C7676761D00AC
:10448000084815E0F369FFCF008000400038014084
:104490000044004000480040004C00408C6F000881
:1044A000FFFC0F000024F400FEF7E6F900285AD0C4
:1044B000626A324B33F81230B0FBF3F06268530893
:1044C00003EB4000B0FBF2F0A0F110024FF6EF73E7
:1044D0009A424AD883B223F00F03C0F34200184334
:1044E0002368D860002020E0FEF7D8F9DEE7FEF769
:1044F0007DF8DBE7224803E0FEF7BEF9002838D05C
:10450000626A1E4B33F81230B0FBF3F0636800EBC5
:104510005300B0FBF3F0A0F110024FF6EF739A4294
:1045200029D8236880B2D86000200123A4F86A301B
:10453000A4F8683000236367A36770BDFEF7AEF987
:10454000DCE7FEF753F8D9E74FF40040D8E7012045
:10455000EBE70020E9E70120E7E70120E5E701209C
:10456000E3E70120E1E70020DFE70120DDE70120AC
:10457000DBE70020D9E70120D7E700BF8C6F0008F8
:104580000024F400836A13F0080F06D00268536811
:1045900023F40043816B0B435360836A13F0010FD4
:1045A00006D00268536823F40033C16A0B4353609A
:1045B000836A13F0020F06D00268536823F4803335
:1045C000016B0B435360836A13F0040F06D002683B
:1045D000536823F48023416B0B435360836A13F0C9
:1045E000100F06D00268936823F48053C16B0B430D
:1045F0009360836A13F0200F06D00268936823F457
:104600000053016C0B439360836A13F0400F0AD090
:104610000268536823F48013416C0B435360436C6E
:10462000B3F5801F0BD0836A13F0800F06D00268A9
:10463000536823F40023C16C0B4353607047026836
:10464000536823F4C003816C0B435360EBE72DE9FF
:10465000F84305460E4617469946DDF820802C683B
:10466000E46936EA04030CBF4FF0010C4FF0000C74
:10467000BC4536D1B8F1FF3FF1D0FDF7FFFCA0EB10
:104680000900404530D8B8F1000F2FD02B681A68C8
:1046900012F0040FE3D0802EE1D0402EDFD0DA6993
:1046A00012F0080F11D1DA6912F4006FD7D04FF46D
:1046B00000621A622846FFF79FF82023C5F8903061
:1046C000002385F8843003200CE008241C6228466F
:1046D000FFF792F8C5F89040002385F88430012058
:1046E00000E00020BDE8F8830320FBE70320F9E7A2
:1046F0002DE9F04182B01E46D0F88830202B5AD1E7
:1047000004460D469046002959D00AB9012053E0CD
:104710000023C0F890302123C0F88830FDF7AEFCAC
:104720000746A4F85480A4F85680A368B3F5805FC8
:1047300002D04FF0000816E0236943B34FF00008A1
:1047400011E02023C4F88830032035E038F8023B1C
:104750002268C3F308039362B4F8562092B2013A78
:1047600092B2A4F85620B4F856309BB293B100969A
:104770003B46002280212046FFF769FF0028E0D158
:10478000002DE3D015F8012B23689A62E4E7A846D0
:104790000025E8E700963B46002240212046FFF72F
:1047A00056FF18B92023C4F8883005E02023C4F848
:1047B0008830032000E0022002B0BDE8F081012033
:1047C000FAE730B583B004460023C0F89030FDF717
:1047D00055FC05462268126812F0080F10D12368B4
:1047E0001B6813F0040F28D12023C4F88830C4F8C4
:1047F0008C300020E066206784F8840003B030BD70
:104800006FF07E430093034600224FF400112046D0
:10481000FFF71DFF0028E2D0226852E8003F23F096
:10482000800342E800310029F6D12023C4F8883003
:10483000002384F884300320E0E76FF07E43009388
:104840002B4600224FF480012046FFF700FF00288E
:10485000CAD0226852E8003F23F4907342E8003146
:104860000029F6D1226802F1080353E8003F23F043
:104870000103083242E800310029F3D12023C4F8B3
:104880008C30002384F884300320B7E778B310B568
:104890000446D0F888300BB32423C4F8883022684B
:1048A000136823F001031360A36AE3B92046FFF7FE
:1048B000C7FC012811D02268536823F49043536049
:1048C0002268936823F02A0393602268136843F0F8
:1048D000010313602046FFF774FF10BD80F8843099
:1048E000FCF718FFD8E72046FFF74CFEDEE7012073
:1048F0007047000010B48165A0F85C20A0F85E202D
:10490000002343678368B3F5805F06D0A3B90369CA
:1049100073B9FF23A0F8603014E0036923B940F2B3
:10492000FF13A0F860300DE0FF23A0F8603009E02D
:104930007F23A0F8603005E0B3F1805F2ED0002324
:10494000A0F860300023C0F890302223C0F88C30EB
:10495000016801F1080353E8003F43F00103083107
:1049600041E80034002CF3D1436EB3F1005F1FD057
:104970008368B3F5805F43D0294B43670369002BFD
:1049800044D0026852E8003F43F4907342E800319B
:104990000029F6D100205DF8044B704703691BB96C
:1049A0007F23A0F86030CDE73F23A0F86030C9E74F
:1049B000B0F868309342DBD88368B3F5805F19D0D4
:1049C000184B4367036943B1026852E8003F43F460
:1049D000807342E800310029F6D1026802F1080331
:1049E00053E8003F43F08053083242E80031002989
:1049F000F3D1CFE70369002BE2D10B4B4367E1E72B
:104A00000369002BB8D1094B4367B7E7026852E846
:104A1000003F43F0200342E800310029F6D1B9E716
:104A2000493C0008FD3D0008C53F0008253D000841
:104A300038B5D0F88C30202B17D1C1B1CAB10023C2
:104A4000C36603680C4CA3420CD05B6813F4000FE0
:104A500008D0046854E8003F43F0806344E8003520
:104A6000002DF6D1FFF746FF00E0022038BD0120FF
:104A7000FCE70120FAE700BF0080004010B50446C3
:104A800013468165A0F85C200022C0F89020222205
:104A9000C0F88C20D0F88020AAB12149D162D0F88A
:104AA000802020491163D0F880201F495163D0F83D
:104AB0008020002191630168826D2431D0F880004C
:104AC000FEF72CFA20BB236943B1226852E8003F6D
:104AD00043F4807342E800310029F6D1226802F1E4
:104AE000080353E8003F43F00103083242E8003175
:104AF0000029F3D1226802F1080353E8003F43F094
:104B00004003083242E800310029F3D1002010BDF3
:104B10001023C4F890302023C4F88C300120F6E72D
:104B2000AD4100088D4100087938000838B5D0F84B
:104B30008C30202B17D1C1B1CAB10023C3660368E2
:104B40000C4CA3420CD05B6813F4000F08D004682F
:104B500054E8003F43F0806344E80035002DF6D16F
:104B6000FFF78CFF00E0022038BD0120FCE70120A8
:104B7000FAE700BF00800040436E2BB90123A0F884
:104B80006A30A0F86830704730B403689A68C2F39E
:104B900042629968490F094D6B5CDB00084C615C0F
:104BA00093FBF1F3A0F86A30AB5CDB00A25C93FBF3
:104BB000F2F3A0F8683030BC704700BFAC6F00085B
:104BC000A46F000870477047704790F88430012B3D
:104BD00018D0012380F884302423C0F8883003687B
:104BE0001A68196821F00101196022F000520023AF
:104BF000436601680A602022C0F8882080F884306B
:104C0000184670470220704738B590F88430012B61
:104C10001DD00446012380F884302423C0F8883056
:104C200003681D681A6822F001021A60026893681E
:104C300023F0604319439160FFF79EFF23681D60D6
:104C40002023C4F88830002084F8840038BD022076
:104C5000FCE738B590F88430012B1DD004460123C1
:104C600080F884302423C0F8883003681D681A68EF
:104C700022F001021A600268936823F0606319430E
:104C80009160FFF779FF23681D602023C4F8883006
:104C9000002084F8840038BD0220FCE7034AD2F8E3
:104CA000883043F47003C2F88830704700ED00E0AC
:104CB00010B503460C4A0D490D48006840B10C4838
:104CC00000680344521A934206D8094A136010BD83
:104CD0000748084C0460F2E701F0ACFC0C230360C9
:104CE0004FF0FF30F3E700BF008000200004000019
:104CF000E0030020480A002038B51D4B1A78531FE6
:104D0000DBB2032B07D91A4B1A78A2F10D03DBB2E1
:104D1000032B16D938BD541F164D174B1978286828
:104D200001F0C8FB154B23F81400114B1C78053C0F
:104D3000134B1978286801F0BDFB124B23F81400BF
:104D4000E1E7A2F10D040B4D0B4B1978286801F037
:104D5000B1FB0D4B23F81400054B1C780D3C084BA0
:104D60001978286801F0A6FB084B23F81400D1E756
:104D7000B10000202800002002000020FC030020D9
:104D80000300002004040020E4030020EC030020C2
:104D9000F8B5002404E03220FDF776F90134A4B21E
:104DA0002046FBF709FD06460F46934B58881B88A3
:104DB000C01AFBF701FD8EA3D3E90023FBF780FAAD
:104DC00002460B4630463946FBF7C0FD60B38B4ABE
:104DD0001388528813448A4A12881344894A82FBF2
:104DE000032300EE103A884D0022B8EEC00A874B2C
:104DF0001978286801F02AFB7F4B1A88631C03EBA3
:104E00008303D31800EE103A0022B8EEC00A804B9C
:104E10001978286801F01AFB00F096FF002CBAD12F
:104E2000FA20FDF731F9B9E7002404E03220FDF75C
:104E30002BF90134A4B22046FBF7BEFC06460F4610
:104E40006E4B5D889888281AFBF7B6FC68A3D3E9F7
:104E50000023FBF735FA02460B4630463946FBF78E
:104E600075FD60B3631CC3EB8372C3EB82032B44F9
:104E700000EE103A644D0022B8EEC00A634B197878
:104E8000286801F0E3FA5C4A538892881344614A27
:104E9000528813445B4A82FB032300EE103A00223F
:104EA000B8EEC00A5A4B1978286801F0CFFA00F022
:104EB0004BFF002CBAD1FA20FDF7E6F8B9E7002441
:104EC00004E03220FDF7E0F80134A4B22046FBF7FD
:104ED00073FC06460F46484B9888DB88C01AFBF7E0
:104EE0006BFC43A3D3E90023FBF7EAF902460B4628
:104EF00030463946FBF72AFD70B3404A9388D28882
:104F000013443F4A928813443E4A82FB032300EE37
:104F1000103A3D4D0022B8EEC00A3C4B1978286883
:104F200001F094FA344B9A88631CC3EB8371C3EB92
:104F30008103D31800EE103A0022B8EEC00A344BB9
:104F40001978286801F082FA00F0FEFE002CB8D132
:104F5000FA20FDF799F8B7E7002404E03220FDF7C6
:104F600093F80134A4B22046FBF726FC06460F4610
:104F7000224B1888DD88401BFBF71EFC1CA3D3E9DD
:104F80000023FBF79DF902460B4630463946FBF7F6
:104F9000DDFC50B3631C03EB83032B4400EE103A9B
:104FA000194D0022B8EEC00A184B1978286801F094
:104FB0004DFA114AD38812881344164AD2881344F2
:104FC000104A82FB032300EE103A0022B8EEC00A1A
:104FD0000F4B1978286801F039FA00F0B5FE002C63
:104FE000BCD1FA20FDF750F8BBE7F8BDAFF3008065
:104FF0009A9999999999C93F04040020FC030020CB
:10500000E4030020565555552800002002000020DA
:1050100003000020EC030020091A174A13680B4410
:105020001360164802688A1A016007EE901AF8EEBB
:10503000E77A67EE807A07EE103AB8EEC77A27EE85
:10504000207A77EE877A07EE102AB8EEC77A27EE35
:10505000017A77EEC77AFDEEE77A17EE900AB0F59F
:10506000967F03DC10F5967F03DB70474FF4967054
:1050700070470348F9E700BFB8040020BC040020D3
:10508000D4FEFFFF134B1B7803B970470223092B93
:105090001AD810B45A0001320F4C14F802C014F898
:1050A000131003F18042023A41EA0C2140F8221029
:1050B0000133DBB2092BEDD90023064A1370074AEE
:1050C00013705DF8044B70470023024A1370034AC3
:1050D00013707047AD000020BC000020AE0000201F
:1050E0002DE9F043524D2C680C6068684860AA684E
:1050F000224402EBD27252100A61EB68034403EBC4
:10510000D3735B104B61A61806EBD67676108E60D3
:10511000C61806EBD6767610CE60D5F808904A44CD
:1051200002EBD27252108A61D5F80C80434403EB33
:10513000D3735B10CB61C1F82090C1F82480AF69B4
:1051400009EB070303EBD3734FEA630EC1F830E0BA
:10515000EE6908EB060C0CEBDC7C4FEA6C0CC1F83A
:1051600034C009EB0E0202EBD27252108A6208EBD5
:105170000C0303EBD3735B10CB6207EB0E0303EB63
:10518000D3735B108B63B4440CEBDC7C4FEA6C0391
:10519000CB632A690A646B694B64BD1805EBD5754E
:1051A0006D100D6506EB030C0CEBDC7C4FEA6C0C10
:1051B000C1F854C007EB050E0EEBDE7E4FEA6E0E13
:1051C000C1F848E006EB0C0E0EEBDE7E4FEA6E0EE9
:1051D000C1F84CE0154405EBD5756D108D659C4408
:1051E0000CEBDC7C4FEA6C05CD650F664E66A618AD
:1051F00006EBD67676100E67C51805EBD5756D10E3
:105200004D67324402EBD27252108A662B4403EB94
:10521000D3735B10CB66344404EBD47464108C6796
:10522000284400EBD0704010C867BDE8F08300BF91
:10523000C00400200E4B1B78012B00D070470D4B93
:105240001B78012BFAD100230CE05A0001320A49E5
:1052500011F802C011F8132042EA0C2240F8232072
:105260000133DBB2012BF0D9014B00221A70E5E7C4
:10527000AD000020AF000020BC00002040F29B7376
:10528000984204DD40F6C803984203DC704740F2C0
:105290009C70704740F6C800704700002DE9F84345
:1052A0003D4B1B78012B01D0BDE8F88305460C4629
:1052B0003A48FFF7BFFF01F01DF9012855D0384BE0
:1052C0009FED380A83ED000ADFED370AC3ED010ACE
:1052D0009FED361A83ED021A304E29463068FFF7EB
:1052E0009BFE334D2860334B93ED021AD3ED010A38
:1052F00093ED000A21467068FFF78EFE6860DFF8C4
:10530000D4802D4E98F80010306801F0D3F82B4C63
:1053100020802B4F3978306801F0CCF86080642011
:10532000FCF7B2FED6F8009098F8008020882B6831
:10533000C01AFFF7A3FF00EE100A0022B8EEC00A61
:105340004146484601F082F836683F7860886B68CD
:10535000C01AFFF793FF00EE100A0022B8EEC00A51
:105360003946304601F072F89EE701F0CFF8154F4C
:10537000387001F0D3F80646134B18703F78013FA0
:10538000124801F0E5F806EB8706114B03EB8606A1
:1053900086ED000A93E700BFAD000020F403002073
:1053A000A00400208FC2753D00000000D578E93DC3
:1053B00010040020AC040020280000200C04002071
:1053C000030000202D0A00202E0A0020A40900203E
:1053D0000C0A00200200002010B50C4C0122022112
:1053E0002046FDF7D0FC012204212046FDF7CBFC2E
:1053F00004F58064012210212046FDF7C4FC01223F
:1054000020212046FDF7BFFC10BD00BF000400486E
:1054100038B50446002202700221B548FDF7B3FCFE
:1054200040214FF09040FDF7A7FC30B180214FF0B4
:105430009040FDF7A1FC00287AD1AE4B01221A70F2
:10544000AD48FDF787FFAD4B1B78002B7FD1A84DF2
:10545000012202212846FDF796FC0022042128465D
:10546000FDF791FC40214FF09040FDF785FC38B1ED
:1054700080214FF09040FDF77FFC002840F0AC8089
:105480009C4B01221A709C48FDF764FF9B4B1B78D4
:10549000002B40F0B180012204219548FDF773FCF8
:1054A000002210219648FDF76EFC40214FF09040FD
:1054B000FDF762FC38B180214FF09040FDF75CFCB5
:1054C000002840F0DE808B4B01221A708A48FDF7DD
:1054D00041FF8A4B1B78002B40F0E380884D01226E
:1054E00010212846FDF74FFC002220212846FDF719
:1054F0004AFC40214FF09040FDF73EFC38B180213E
:105500004FF09040FDF738FC002840F01A81794BAD
:1055100001221A707848FDF71DFF784B1B78002B8D
:1055200040F01F81012220217548FDF72CFC38BD79
:1055300001214FF09040FDF71FFC00283FF47DAFA4
:1055400008216F48FDF718FC002880D175E76A48EC
:10555000FDF742FF40214FF09040FDF70DFC60B990
:1055600040214FF09040FDF707FC0028F8D00123C0
:105570002370624B00221A7069E780214FF090403F
:10558000FDF7FAFB48B980214FF09040FDF7F4FB9E
:105590000028F8D002232370EBE701214FF0904060
:1055A000FDF7EAFB48B901214FF09040FDF7E4FB1D
:1055B0000028F8D003232370DBE708215048FDF7CB
:1055C000DBFB0028D5D108214D48FDF7D5FB00288D
:1055D000F9D004232370CCE701214FF09040FDF770
:1055E000CBFB00283FF44CAF08214548FDF7C4FB36
:1055F00000287FF450AF43E73F48FDF7EDFE402120
:105600004FF09040FDF7B8FB60B940214FF090405B
:10561000FDF7B2FB0028F8D005232370374B00229A
:105620001A7038E780214FF09040FDF7A5FB48B98C
:1056300080214FF09040FDF79FFB0028F8D0062313
:105640002370EBE701214FF09040FDF795FB48B93F
:1056500001214FF09040FDF78FFB0028F8D0072381
:105660002370DBE708212648FDF786FB0028D5D10B
:1056700008212348FDF780FB0028F9D00823237078
:10568000CCE701214FF09040FDF776FB00283FF476
:105690001AAF08211A48FDF76FFB00287FF41EAFF0
:1056A00011E71548FDF798FE40214FF09040FDF7B7
:1056B00063FB60B940214FF09040FDF75DFB00288F
:1056C000F8D0092323700D4B00221A7006E78021C1
:1056D0004FF09040FDF750FBA0B980214FF0904073
:1056E000FDF74AFB0028F8D00A232370EBE700BF40
:1056F00000040048B300002074010020B400002022
:105700000008004801214FF09040FDF735FB48B9F3
:1057100001214FF09040FDF72FFB0028F8D00B231C
:105720002370D0E708213148FDF726FB0028CAD1B5
:1057300008212E48FDF720FB0028F9D00C23237008
:10574000C1E701214FF09040FDF716FB00283FF420
:10575000DEAE08212846FDF70FFB00287FF4E2AEFD
:10576000D5E62348FDF738FE40214FF09040FDF785
:1057700003FB60B940214FF09040FDF7FDFA00288F
:10578000F8D00D2323701B4B00221A70CAE680212B
:105790004FF09040FDF7F0FA48B980214FF090406B
:1057A000FDF7EAFA0028F8D00E232370EBE7012179
:1057B0004FF09040FDF7E0FA48B901214FF09040DA
:1057C000FDF7DAFA0028F8D00F232370DBE7082171
:1057D0000648FDF7D1FA0028D5D108210348FDF786
:1057E000CBFA0028F9D010232370CCE7000800483A
:1057F00074010020B400002000B587B08DF81700B8
:105800004FF480730293012301930DF1170200926C
:10581000002278210248FCF7A8FA07B05DF804FBE3
:10582000D400002010B5C820FCF72EFC002405E0B1
:10583000044B185DFFF7E0FF0134E4B2162CF7D9F2
:1058400010BD00BF1000002000B587B08DF8170014
:105850004FF480730293012301930DF1170200921C
:10586000402278210248FCF780FA07B05DF804FB7B
:10587000D400002038B5002509E00020FFF7E4FF40
:105880000134E4B214F0800FF7D00135EDB2072DEA
:105890000CD8A5F15000C0B2FFF7AEFF0020FFF713
:1058A000ABFF1020FFF7A8FF0024EBE738BD10B5D1
:1058B0000446A1F15000C0B2FFF79EFF200940F05E
:1058C0001000FFF799FF04F00F00FFF795FF10BDE0
:1058D0002DE9F04180460F469DF81860203AD5B278
:1058E00010F0800F07D1102B0AD039464046FFF741
:1058F000DEFF002447E00237FFB24FF00008F2E776
:1059000039464046FFF7D3FF002407E004EB0513B8
:10591000254AD05CFFF798FF0134E4B2072C0AD87F
:10592000002EF3D004EB05131F4AD05CC043C0B275
:10593000FFF78AFFF0E7791CC9B24046FFF7B7FFCF
:10594000002408E004EB05130833174AD05CFFF786
:105950007BFF0134E4B2072C24D8002EF2D004EBF4
:1059600005130833104AD05CC043C0B2FFF76CFF88
:10597000EFE705EB45030D4A02EB4303185DFFF724
:1059800063FF0134E4B2052C0CD8002EF1D005EBF6
:105990004503064A02EB4303185DC043C0B2FFF75C
:1059A00053FFEEE7BDE8F081707200084870000810
:1059B0002DE9F04383B004460E4617461D469DF878
:1059C00028804FF0000909E00634E4B214E0013603
:1059D000F6B2002409F101005FFA80F917F80920F6
:1059E000B2B1CDF800802B4631462046FFF770FF5C
:1059F0000C2DE9D00834E4B27A2C01D90C2DE6D074
:105A0000782CE7D9102DE5D10136F6B20024E1E774
:105A100003B0BDE8F083000030B583B000240094EB
:105A200010233C4A21461846FFF7C2FF009410237A
:105A3000394A02211846FFF7BBFF00941023374A6A
:105A400004211846FFF7B4FF01241FE00134032CA2
:105A500023DD012421E0013C002C20DC01241EE098
:105A6000002500951023202229462846FFF730FF05
:105A7000009510232A2202212846FFF729FF0095CE
:105A80001023202204212846FFF722FF244D284618
:105A9000FFF7BEFC2B78012BD8D0022BDBD0032BD9
:105AA00033D0022CDCD0032C18D0012CEED10025F1
:105AB000009510232A2229462846FFF709FF009562
:105AC0001023202202212846FFF702FF0095102311
:105AD000202204212846FFF7FBFED7E7002500958A
