:020000040800F2
:10000000F80F002081020008BB3900088F2B000880
:10001000B939000863070008055400080000000013
:10002000000000000000000000000000E5400008A3
:100030001308000800000000713B00088D43000811
:100040009B0200089B0200089B0200089B0200081C
:100050009B0200089B0200089B0200089B0200080C
:100060009B0200089B0200089B020008650700082D
:100070009B0200089B0200089B0200089B020008EC
:100080009B020008000000009B0200089B02000881
:100090009B0200089B0200089B0200089B020008CC
:1000A0009B0200089B0200089B0200089B020008BC
:1000B0009B0200089B0200089B0200089B020008AC
:1000C0009B0200089B0200089B0200089B0200089C
:1000D0009B020008295200083552000841520008CE
:1000E0009B0200089B0200089B0200089B0200087C
:1000F0009B0200089B0200089B0200080000000011
:10010000000000009B020008000000009B020008A5
:100110009B02000800000000094400081544000884
:100120009B0200089B0200089B0200089B0200083B
:100130009B02000800000000000000009B02000875
:100140009B0200089B020008000000000000000065
:10015000000000000000000000000000000000009F
:100160000000000000000000000000009B020008EA
:100170009B020008000000000000000000000000DA
:10018000000000009B0200080000000000000000CA
:10019000000000000000000000000000000000005F
:1001A00000000000000000009B0200089B02000805
:1001B0009B0200089B0200089B0200080000000050
:1001C000000000009B02000800000000000000008A
:1001D0009B0200089B02000800F002F800F041F8C2
:1001E0000AA090E8000C82448344AAF10107DA4592
:1001F00001D100F036F8AFF2090EBAE80F0013F0A3
:10020000010F18BFFB1A43F00103184738600000C4
:1002100058600000103A24BF78C878C1FAD8520755
:1002200024BF30C830C144BF04680C607047000070
:100230000023002400250026103A28BF78C1FBD8EF
:10024000520728BF30C148BF0B607047642900F0D7
:10025000EB80002070471FB505F0CAFB1FBD10B52D
:1002600010BD00F044FA1146FFF7F5FF05F002F962
:1002700000F062FA03B4FFF7F2FF03BC00F06AFA81
:100280000948804709480047FEE7FEE7FEE7FEE72A
:10029000FEE7FEE7FEE7FEE7FEE7FEE70448054966
:1002A000054A064B70470000F9430008D9010008D1
:1002B000F8090020F80F0020F80B0020F80B0020B0
:1002C00053EA020C00F069802DE9F04B4FF0000674
:1002D000002B1FBFB3FA83F503FA05F424FA05F6E1
:1002E0005E4012BF1643B2FA82F502FA05F4C5F178
:1002F00020051EBF22FA05FC44EA0C04203556EA0C
:10030000044C4FEA144418BF641C4FF000084FF02F
:100310000009904271EB030C39D3002919BFB1FADF
:1003200081F701FA07F6B0FA80F700FA07F6C7F18D
:1003300020071EBF20FA07FC46EA0C062037B6FB52
:10034000F4FCA7EB0507103F07F01F0BCBF12006CD
:100350000CFA0BFB2CFA06F644BFB3460026202FFE
:10036000A4BF5E464FF0000B5BEA060C08BF4FF0DF
:10037000010B19EB0B09ABFB027C48EB0608C01B19
:1003800006FB02CC0BFB03CC71EB0C01C1E70B4667
:10039000024641464846BDE8F08B13B54FF00000D9
:1003A0004FF00001AFF30080BDE81C407047000033
:1003B0000FB41CB5074B06AA7B446946009005980C
:1003C00000F07DF90020694600F08CF91CBC5DF856
:1003D00014FB00002903000070B50446856900681D
:1003E000C10601D5302600E02026C00707D070BD29
:1003F000D4E9012130469047206A401C20626D1EDE
:10040000F6D570BD70B5044685690078C00707D180
:1004100070BDD4E9012120209047206A401C206251
:100420006D1EF6D570BD00002DE9F0410646002492
:1004300010687529314616A510D0AFF3008000284A
:1004400002DA404213A507E031688A0701D512A5F8
:1004500002E0490704D511A5012401E0AFF30080B3
:1004600000210A2206F1240709E0B0FBF2FCB0FBF0
:10047000F2F302FB1C00303078541846491C002867
:10048000F3D123462A463046BDE8F04100F0B9B822
:10049000000000002D0000002B00000020000000E4
:1004A0002DE9F0474FF0000A89460446C0F820A025
:1004B0002046E1688847002876D0252806D0D4E970
:1004C00001219047206A401C2062F1E7E168204644
:1004D00000258847C4F81CA006460027C4F818A0C9
:1004E0002A2E09D0304604F0B4FF38B304EB870855
:1004F000303EC8F8186019E059F8041B204604EB98
:1005000087029161E1688847012F064618D1E069AA
:10051000002820DA25F020051DE0D8F8180000EBAF
:10052000800006EB40003038C8F818002046E1682B
:100530008847064604F08DFF0028EED1012F0AD02F
:100540002E2E08D12046E16888477F1C0646022FE0
:1005500045F02005C4DBA069002803DA404245F0DD
:100560000105A061E80701D025F01005B6B1A6F19C
:100570004100192802D8203645F400654A46314624
:10058000204625604D46FFF761FE58B1012806D090
:10059000ED1D25F0070000F1080989E704E005F1E9
:1005A000040985E730468AE7206ABDE8F0874FF006
:1005B000000200B5134694469646203922BFA0E8B3
:1005C0000C50A0E80C50B1F12001BFF4F7AF0907BF
:1005D00028BFA0E80C5048BF0CC05DF804EB8900B0
:1005E00028BF40F8042B08BF704748BF20F8022BF3
:1005F00011F0804F18BF00F8012B7047704770470B
:1006000070472DE9F0470D4699469246044600F1A1
:1006100024080168880604D5E06921F010012160F2
:1006200000E00120A84201DD471B00E00027A1698E
:100630007A1902EB0900081AA0612078C00602D4DA
:100640002046FFF7C9FE002608E0D4E901211AF888
:1006500006009047206A401C761C20624E45F4DB61
:100660002078C0060AD52046FFF7B6FE06E0D4E99A
:10067000012130209047206A401C2062381EA7F1DB
:100680000107F4DC07E0D4E9012118F805009047E0
:10069000206A401C2062281EA5F10105F3DC2046DB
:1006A000FFF7B0FE2078000602D50220BDE8F087F3
:1006B0000120FBE701694A1C02610878704700B518
:1006C0008FB0CDE901310021059105497944CDE98B
:1006D000031011466846FFF7E3FE0FB000BD0000AF
:1006E000E5FFFFFF0A6802F8010B0A6070477546D4
:1006F00000F02CF8AE4605006946534620F007008E
:10070000854618B020B5FFF7C9FDBDE820404FF081
:1007100000064FF000074FF000084FF0000B21F0EB
:100720000701AC46ACE8C009ACE8C009ACE8C009B8
:10073000ACE8C0098D46704710B50446AFF30080A1
:100740002046BDE81040FFF795BD00000048704707
:100750009809002001491820ABBEFEE726000200E0
:100760007047FEE7014800F094B9000064030020E0
:100770000D4902688A4201D20C4901E00B4920313F
:10078000D2B21423083AB2FBF3F2436C02F01F0218
:1007900023F003031944816404498031C1640121B9
:1007A00091400165704700000804024000080240C3
:1007B0000179074A02EB81024265054A4432491E2B
:1007C000826501F01F0201219140C1657047000060
:1007D000FC08024030B5D0E913456560446D14B1A2
:1007E000D0E91645656090F8444004F01F050124E7
:1007F000AC40056C6C60046863608368102B036810
:1008000003D099600068C26030BD9A600068C16022
:1008100030BD704772B6FEE7F0B52F4E8DB00120A7
:100820002E4F30702E4800F087F838783178084322
:10083000F8D1431E01222B492B4802F050F9002425
:10084000274D019402940394D5E9002327A101A820
:10085000FFF7AEFD0021102301AA0846009403F023
:1008600037F9049405940694D5E902231FA104A83E
:10087000FFF79EFD102304AA02210020009403F03C
:1008800027F9079408940994D5E9042317A107A828
:10089000FFF78EFD102307AA04210020009403F027
:1008A00017F90A940B940C94D5E906230FA10AA812
:1008B000FFF77EFD10230AAA06210020009403F012
:1008C00007F90D4802F056FB0B4800780428A9D11F
:1008D00003F074F80DB0F0BD0300002012000020FA
:1008E000F808002013000020D002002028253464DE
:1008F0002C25346429000000140000200B4A10B598
:100900001178012911D10A49097801290DD1094B22
:10091000002100BF03EB4104248840F82140491C1A
:10092000C9B20229F6D30020107010BD12000020B9
:1009300011000020A800002030B50B4A11780029D2
:1009400011D00A4B022100BF03EB410400EB8105EB
:10095000491C2488C9B245F8084C0A29F4D3044933
:1009600000201070087030BD12000020A800002088
:10097000030000200249002208780A707047000036
:100980005E0000200248034A002100781170704781
:100990005F0000205E00002004480178012901D09A
:1009A0000020704700210170012070476000002086
:1009B00010B590F8253000210122022B03D004212C
:1009C000C163012122E003681C6824F00E041C604E
:1009D000836C1C6824F480741C6003681C6824F019
:1009E00001041C6090F84430046C03F01F0302FA09
:1009F00003F36360D0E913345C60436D33B11C686A
:100A000024F480741C60D0E916345C6080F82520E2
:100A1000002280F82420084610BD70B590F82520EB
:100A2000002401212346022A07D00422C26380F851
:100A3000251080F82430012429E00268156825F08B
:100A40000E0515600268156825F001051560826CB9
:100A5000156825F48075156090F84420056C02F047
:100A60001F0201FA02F26A60D0E913255560426D57
:100A700032B1156825F480751560D0E916255560EA
:100A800080F8251080F82430816B01B1884720461A
:100A900070BDF0B4016C0C6801680D6890F84420DA
:100AA00002F01F06042202FA06F3234211D06B075C
:100AB0000FD50B689B0603D40B6823F004030B606F
:100AC00090F8441001F01F018A40016C4A60016BEC
:100AD0001DE0022303FA06F727424FF0000C4FF007
:100AE000010218D0AF0716D50C68A40605D40C680F
:100AF00024F00A040C6080F8252090F8441001F0DE
:100B00001F018B40016C4B6080F824C0C16A002932
:100B10001AD0F0BC08470823B340234214D02B0757
:100B200012D50B6823F00E030B6090F84410036C91
:100B300001F01F0102FA01F15960C26380F825201B
:100B400080F824C0416BE2E7F0BC704770B5040048
:100B50000CD02B4A21681420914209D2294A0A4418
:100B6000B2FBF0F08000606427480AE0012070BD0D
:100B7000234A52420A44B2FBF0F0800060642048ED
:100B800008382064022084F825000A6847F6F070CF
:100B90008243D4E902031843D4E904352B431843B4
:100BA000A3691843E3691843236A18431043086094
:100BB0002046FFF7DDFDA0680025B0F5804F00D18D
:100BC0006560A16C20790860D4E913014160606818
:100BD000401E032808D82046FFF7EAFD606D056037
:100BE000D4E91601416002E06565A565E565E56348
:100BF000012084F8250084F82450002070BD0000F6
:100C000008040240F8FFFDBF0000024070B5044632
:100C100090F82400002501280CD0012084F824003D
:100C200094F825600020012E06D084F824000225C7
:100C3000284670BD022070BD022684F82560E0635E
:100C40002068066826F0010606602046FFF7C2FD10
:100C5000206B00282068016802D041F00E0106E0F8
:100C600021F0040101602068016841F00A0101607F
:100C7000A06C0168C90303D5016841F4807101606B
:100C8000606D18B1016841F48071016020680168ED
:100C900041F001010160CBE770B5044600F03CF97A
:100CA0000546601C02D004484068044400F034F952
:100CB000401BA042FAD370BD180000202DE9F04F70
:100CC000DFF82092002301260324A9F1040B85B04C
:100CD0000F2709F1040AABF1040EFAE006FA03F556
:100CE0002A407CD091F804C00CF0030CBCF1010F39
:100CF00002D0BCF1020F26D1D0F808C0CDF800C058
:100D00004FEA430C04FA0CF8CDF810C0DDF800C02F
:100D10002CEA080CCDF800C0D1F80C80DDF810C02A
:100D200008FA0CF8DDF800C048EA0C08C0F80880A2
:100D3000D0F804C02CEA050C0D79C5F300159D40D0
:100D400045EA0C0545600D79ED43AD070ED0C56849
:100D50004FEA430804FA08FC25EA0C05D1F808C05C
:100D60000CFA08FC4CEA050CC0F80CC00D7905F033
:100D70000305022D16D1DD0800EB850CCDF808C067
:100D8000DCF820805D074FEAD56C07FA0CF528EAFD
:100D900005080D6905FA0CF5DDF808C045EA0805F7
:100DA000CCF8205005684FEA430CCDF808C004FA8F
:100DB0000CFC25EA0C0591F804C00CF00308DDF8E2
:100DC00008C008FA0CF848EA0508C0F800804D6829
:100DD00015F4403F7CD0444DD5F860C000E077E08A
:100DE0004CF0010CC5F860C02D6E23F0030C05F02B
:100DF000010500953D4D65440295AD684FEA837C41
:100E00004FEA1C7807FA08FC25EA0C05B0F1904F70
:100E100006D0DFF8DCC0604505D14FF0010C20E0C2
:100E20004FF0000C1DE0DFF8CCC0604502D14FF060
:100E3000020C16E0DFF8C0C0604502D14FF0030C91
:100E40000FE0DFF8B8C0604502D14FF0040C08E0B5
:100E5000DFF8ACC0604502D14FF0050C01E04FF067
:100E6000060C0CFA08FC4CEA050C029DC5F808C0FB
:100E7000D9F80050CC46D1F8048095435FEAC828E1
:100E800000D51543CCF80050DAF80050D446D1F81C
:100E9000048095435FEA882800D51543CCF80050BC
:100EA000DBF80050DC46D1F8048095435FEA8838CF
:100EB00000D51543CCF80050DEF80050F446D1F8C8
:100EC000048095435FEAC83800D51543CCF800503C
:100ED0005B1C0A6832FA03F57FF400AF05B0BDE889
:100EE000F08F0000080401400010024000000140A3
:100EF0000004004800080048000C004800100048AA
:100F0000001400480069084000D0012070470AB171
:100F100081617047816270470148806870470000B6
:100F20001800002090F84120202A24D190F8402079
:100F3000012A20D0012280F84020242280F841207C
:100F40000268136823F0010313600268136823F436
:100F500080531360026813680B43136001680A68CA
:100F600042F001020A60202180F84110002180F83F
:100F70004010084670470220704790F84120202A10
:100F800022D190F84020012A1ED0012280F8402072
:100F9000242280F841200268136823F001031360C3
:100FA0000268136823F4706343EA01211160016849
:100FB0000A6842F001020A60202180F841100021F5
:100FC00080F840100846704702207047074908B56E
:100FD0000A6E42F001020A66096E01F001010091F9
:100FE00003494A6802434A6008BD000000100240FD
:100FF0000000014070B5040004D094F841000025C1
:1010000010B106E0012070BD84F84050204600F089
:10101000FBF8242084F841002068016821F00101D8
:1010200001606068216820F0706008612068816854
:1010300021F400418160E0680128A06830D040F4CC
:10104000044021688860E0680228206841682AD04E
:1010500021F40061416020684168144A11434160F5
:101060002068C16821F40041C160D4E9040108434B
:10107000A16940EA01202168C860D4E9070108435A
:10108000216808602068016841F001010160656421
:10109000202084F84100256384F84250002070BD70
:1010A00040F40040CDE741F40061D3E70080000246
:1010B0002DE9FF4F83B00446DDE9108790F8410029
:1010C000DDF848909A469346202871D15FEA0800DF
:1010D00014D09FB194F84000012869D0012084F811
:1010E0004000FFF719FF0646012200901923D103A3
:1010F000204601F02FFE00286ED103E04FF400706F
:10110000606469E0212084F84100402084F84200B6
:1011100000256564C4F8248067856563CDE9009681
:1011200053465A462046049901F0CAFD10B184F88E
:10113000405051E0608DFF274FF080784FF0007AEB
:10114000FF2804D927853A464346009505E0608D7F
:101150002085009594F8282053462046049901F0F4
:10116000E1FD32464946204601F05CFEA0BB606AC4
:10117000216800788862606A401C6062608D401E51
:101180006085208D401E80B22085618DD9B1D0B997
:101190004B46002280212046009601F0DBFDD8B9A5
:1011A000608DFF2805D927853A464346009506E01D
:1011B00026E0608D2085009594F82820534620462F
:1011C000049901F0AFFD608D0028CAD1324649462E
:1011D000204601F0FCFD18B1012007B0BDE8F08FFA
:1011E00020682021C16120684268064B1A40426095
:1011F00084F8411084F8425084F840500020ECE715
:101200000220EAE700E800FE2DE9F04198B004462C
:10121000142111A8FFF7CBF944216846FFF7C7F95D
:101220002149206888423CD1402000250090069545
:10123000684600F037F908B1FFF7ECFA1B4CE06C98
:1012400040F00100E064E06C00F001001690E06CFA
:1012500040F00200E064E06C4FF0120800F0020081
:1012600016904FF40040CDE9110813AA0326042775
:1012700082E8E00011A94FF09040FFF71FFD8020A9
:10128000CDE9110813AA11A982E8E0000848FFF788
:1012900015FDA06D40F40010A065A06D00F40010D5
:1012A000169018B0BDE8F0810054004000100240D4
:1012B0000004004802488168426811448160704718
:1012C0001800002010B50024032000F073F80F2050
:1012D00000F008F808B1012401E000F025F82046EC
:1012E00010BD000070B50E4E05460024706898B120
:1012F0004FF47A71B1FBF0F00A490968B1FBF0F0E4
:1013000000F05EFD40B9102D06D200222946501E85
:1013100000F030F8356000E00124204670BD000088
:1013200018000020240000200A4882B0016E41F01D
:1013300001010166016E01F001010091816D41F032
:1013400080518165806D00F08050009002B000F007
:10135000A1B8000000100240002809DB00F01F02C5
:10136000012191404009800000F1E020C0F8001107
:1013700070470000F0B40E4B1B680C46C3F3022309
:10138000C3F10705042D00D90425191D072901D231
:10139000002300E0DB1E012606FA05F1491E21406C
:1013A00099409E40761E16403143F0BC04F041B88F
:1013B0000CED00E0064900F0070208684FF6FF0355
:1013C000184040EA0220034A1043086070470000BA
:1013D0000CED00E00000FA052B492C4B0A68322185
:1013E0004A432B4940B1B0F5007F086829D020F46A
:1013F000C06040F480602CE00868C0F341200228FF
:1014000004D051F8800F20F4807022E0D1F88000E1
:1014100020F48070C1F88000086820F4C06040F4B7
:1014200000700860B2FBF3F0401C00E0401E4A6907
:10143000520501D50028F9D1486940050AD5032095
:101440007047C0F34120022806D051F8800F40F4C5
:101450008070086000207047D1F8800040F48070F0
:10146000C1F88000086820F4C06040F40070086093
:10147000B2FBF3F0401C00E0401E4A695205DBD588
:101480000028F9D1D8E700002400002040420F00D6
:10149000007000400248816841F4804181607047DB
:1014A000007000402DE9F8430446006800269D4D79
:1014B00000035ED5A86D0027C00008D4A86D40F0D9
:1014C0008050A865A86D012700F080500090DFF8DB
:1014D0005892D9F8001041F48071C9F80010FFF754
:1014E0001BFD804606E000BFFFF716FDA0EB0800DD
:1014F00002282BD8D9F80000C005F5D5D5F8900002
:1015000010F4407014D0216C814211D0D5F89000B5
:10151000D5F8901020F4407041F48031C5F8901057
:10152000D5F8901021F48031C5F89010C5F89000DE
:10153000C00711D0FFF7F0FC804641F2883907E080
:10154000FFF7EAFCA0EB0801494501D903260BE0AF
:10155000D5F890008007F3D5D5F89000216C20F4E1
:1015600040700843C5F890001FB1A86D20F080506E
:10157000A8652078C00707D0D5F88800616820F0FA
:1015800003000843C5F888002078800707D5D5F800
:101590008800A16820F00C000843C5F88800207876
:1015A000400707D5D5F88800E16820F030000843EF
:1015B000C5F888002078000707D5D5F8880021698C
:1015C00020F0C0000843C5F888002078800607D5C1
:1015D000D5F88800616920F440600843C5F88800A8
:1015E0002078400607D5D5F88800A16920F440503E
:1015F0000843C5F888002078000607D5D5F888008C
:10160000E16920F440400843C5F888002088C005FF
:1016100007D5D5F88800216A20F440300843C5F882
:1016200088002088800507D5D5F88800616A20F4F5
:1016300040200843C5F88800208840050FD5D5F81C
:101640008800A16A20F440100843C5F88800A06A09
:10165000B0F5801F03D1E86840F48010E86020886E
:1016600000050FD5D5F88800E16A20F44000084352
:10167000C5F88800E06AB0F5800F03D1E86840F44F
:101680008010E8602088C0040FD5D5F88800216B51
:1016900020F040700843C5F88800206BB0F1807FCF
:1016A00003D1E86840F48010E86020884FF00061C2
:1016B00080040ED5D5F88800626B20F0406010439E
:1016C000C5F88800606B884203D1E86840F4801058
:1016D000E860208840040ED5D5F88800A26B20F081
:1016E00040601043C5F88800A06B884203D1E868C9
:1016F00040F48010E860208800040FD5D5F88800F9
:10170000E16B20F040500843C5F88800E06BB0F171
:10171000805F03D1E86840F48030E8603046BDE87F
:10172000F883000000100240007000402DE9F047EF
:101730000E4605004FF0000725D0DFF8AC81D8F841
:10174000000000F00F00B0420CD2D8F8001021F0D9
:101750000F013143C8F80010D8F8000000F00F0066
:10176000B04210D12968614CC80741F2883A5AD07A
:101770006868DFF87C91032808D0022820682DD003
:10178000400500282CDB0120BDE8F087206880019F
:10179000F9D5E06800F00302E068C0F30310401CD4
:1017A000032A19D0534A00BFB2FBF0F0E268C2F33B
:1017B00006225043E268C2F34162521C5200B0FB61
:1017C000F2F0484517D9A06810F0F00F0CD0880748
:1017D00011D5A86840B10EE0474AE5E78003D0E79D
:1017E00000F0B6F8484506D9A06820F0F00040F0B7
:1017F0008000A0608027A068696820F0030008438B
:10180000A060FFF789FB814606E000BFFFF784FB7D
:10181000A0EB090151453AD8A068696800F00C00B6
:10182000B0EB810FF2D12868810714D5400703D5AA
:10183000A06840F4E060A0602878000705D5A068A3
:1018400020F4605040F4E060A060A068A96820F037
:10185000F000084304E0802F03D1A06820F0F000DE
:10186000A060D8F80010404601F00F01B14216D92F
:10187000016821F00F0131430160FFF74DFB07467E
:1018800007E000BFFFF748FBC11B514501D903200A
:101890007AE7D8F8000000F00F00B042F2D12878C3
:1018A000400705D5A068E96820F4E0600843A0601F
:1018B0002878000706D5A068296920F4605040EA1E
:1018C000C100A06000F044F8A1680C4AC1F3031104
:1018D000515C01F01F01C8400949086009480068CF
:1018E000BDE8F047FFF7FEBC0020024000100240B8
:1018F00000B4C4040024F40000127A00225A000844
:101900002400002018000020054806490068896866
:10191000054AC1F30221515C01F01F01C840704724
:101920002400002000100240325A000805480649F1
:1019300000688968054AC1F3C221515C01F01F01AA
:10194000C84070472400002000100240325A0008AE
:10195000184910B58868C0F381021748012A0BD0D6
:101960008A684310C2F38102022A06D08A68C2F351
:101970008102032A03D0002010BD184610BDCA689A
:1019800002F00304CA68C2F30312521C032C02D0F3
:10199000B0FBF2F001E0B3FBF2F0CA68C968C2F331
:1019A00006225043C1F34161491C4900B0FBF1F0EC
:1019B00010BD0000001002400024F4002DE9F8439F
:1019C00004007AD02078F84DC00747D0A868E968AD
:1019D00000F00C0001F003010C2802D0082817D0F9
:1019E00001E0032914D06068B0F5803F17D0B0F54E
:1019F000A02F286817D020F480302860286820F4B1
:101A0000802028606068E0B1FFF786FA064614E09F
:101A10002868800322D560680028D2D01EE028689C
:101A200040F48030EDE740F480202860F7E700BF05
:101A3000FFF772FA801B642870D828688003F7D5F6
:101A40000CE0FFF769FA064605E000BFFFF764FA0D
:101A5000801B6428F0D828688003F7D4207880079A
:101A60004CD5A868E96800F00C0001F003010C28CF
:101A700002D004280DD001E002290AD0E068002835
:101A800028682BD040F480702860FFF745FA06469E
:101A900019E02868400502D5E068002891D0686800
:101AA000217C20F0FE4040EA01606860BF48006889
:101AB000FFF718FC002800D120E072E1FFF72CFAB4
:101AC000801B0228B8D828684005F7D56868217CB3
:101AD00020F0FE4040EA016068600FE020F4807072
:101AE0002860FFF719FA064605E000BFFFF714FA71
:101AF000801B0228A0D828684005F7D4207800076A
:101B000029D560690028D5F8940013D040F0010071
:101B1000C5F89400FFF700FA064606E090E000BF23
:101B2000FFF7FAF9801B022886D8D5F894008007C1
:101B3000F6D510E020F00100C5F89400FFF7ECF9AD
:101B4000064604E0FFF7E8F9801B022878D8D5F8AC
:101B500094008007F6D42078400761D5A86D002650
:101B6000C00008D4A86D40F08050A865A86D01267B
:101B700000F0805000908E480168C90511D40168BA
:101B8000804641F480710160FFF7C6F9074604E022
:101B9000FFF7C2F9C01B022852D8D8F80000C005D0
:101BA000F6D5A068012815D00528D5F8900016D0E4
:101BB00020F00100C5F89000D5F8900020F0040056
:101BC000C5F89000A06841F28838B8B1FFF7A4F9D1
:101BD00007460EE0D5F8900040F00100F0E740F035
:101BE0000400C5F89000F5E7FFF796F9C11B4145E1
:101BF00026D8D5F890008007F6D50CE0FFF78CF9D1
:101C0000074604E0FFF788F9C11B414518D8D5F80D
:101C100090008007F6D41EB1A86D20F08050A86512
:101C20002078800629D5A0690028D5F8980013D01F
:101C300040F00100C5F89800FFF76EF9064606E08F
:101C400075E000BFFFF768F9801B02286FD8D5F850
:101C500098008007F6D510E020F00100C5F8980044
:101C6000FFF75AF9064604E0FFF756F9801B0228F1
:101C70005DD8D5F898008007F6D4E069F0B3A9687C
:101C8000C1F3810103295DD00228286820F080700B
:101C9000286003D0FFF740F904464BE0FFF73CF91A
:101CA000064604E0FFF738F9801B02283FD8286871
:101CB0008001F7D4F4E908016FF00F0202EB011183
:101CC0000843218A5204490802EB4151A26841EAC3
:101CD00002210843217D4FF07E42490802EB416119
:101CE0000843217B40EAC160E968324A1140084359
:101CF000E860286840F08070286000E05EE0E868F6
:101D000040F08070E860FFF707F9044605E000BF87
:101D1000FFF702F9001B022809D828688001F7D5CF
:101D20004CE000BFFFF7F8F8001B022802D903209F
:101D3000BDE8F88328688001F4D4E8681E490840AB
:101D4000E8603BE00128F3D0E868226A00F0030174
:101D5000914226D1616A00F0F002090110399142E6
:101D60001FD1A26A00F4FE41B1EB022F19D194F801
:101D70002C2000F07841B1EBC26F12D1218E00F41B
:101D8000C00249084905A1F50011914209D194F812
:101D9000341000F0C06049084906A1F10071814289
:101DA0000CD00120C4E70000001002401800002001
:101DB000007000400C809F01FCFFEEFE0020B7E7A2
:101DC00010B5401EB0F1807F01D3012010BD4FF04F
:101DD000E02460610F21601703F02BFB0020A0615D
:101DE00007202061002010BD704770477047704782
:101DF00070477047F0B590F83C20012A3AD0012591
:101E000080F83C50022280F83D2003685A689C68A4
:101E1000194E1A4FB34201D0BB4204D122F4700CC8
:101E20004A6842EA0C02DFF858C002EA0C02D1F814
:101E300000C04CEA020CC3F804C00268B2420DD0E4
:101E4000B2F1804F0AD00F4B9A4207D00E4B9A4204
:101E500004D0BA4202D00D4B9A4204D1896824F0D2
:101E600080031943916080F83D50002180F83C10B8
:101E70000846F0BD0220F0BD002C014000340140B6
:101E80008FFFFFFD000400400008004000400140BB
:101E9000704710B5040003D094F83D0010B107E07E
:101EA000012010BD002084F83C00204600F022F8FC
:101EB000022084F83D00211D206802F0B1FA0120C3
:101EC00084F8480084F83E0084F83F0084F840001D
:101ED00084F8410084F8420084F8430084F8440008
:101EE00084F8450084F8460084F8470084F83D00F3
:101EF000002010BD08B5154A0168154891420ED161
:101F0000816D41F010018165806D002200F01000AC
:101F1000009001213620FFF72DFA362010E00D4AFF
:101F2000914211D1816D41F020018165806D0022C7
:101F300000F02000009001213720FFF71BFA372026
:101F4000BDE80840FFF708BA08BD000000100040D7
:101F5000001002400014004090F83D10012901D00B
:101F600001207047022180F83D100168CA6842F0E4
:101F70000102CA600068104988420ED0B0F1804F5B
:101F80000BD00E49884208D00D49884205D00D4932
:101F9000884202D00C49884207D181680B4A11401F
:101FA000062906D0B1F5803F03D0016841F0010158
:101FB0000160002070470000002C01400004004038
:101FC00000080040003401400040014007000100CB
:101FD0000168CA6822F00102CA6001680A6A41F217
:101FE00011131A4207D10A6A9B001A4203D10A68E8
:101FF00022F001020A60012180F83D1000207047A4
:1020000070472DE9F04104460068C66805694FF045
:102010000007A90713D5B10711D5F91E01610120E9
:102020002077206880698007204602D0FFF7E8FF0C
:1020300004E000F0B7F8204600F0B5F8277768070D
:1020400016D5700714D521686FF0040008610220CE
:1020500020772068806910F4407F204602D0FFF787
:10206000CFFF04E000F09EF8204600F09CF82777B0
:10207000280715D5300713D521686FF008000861CF
:10208000042020772068C0698007204602D0FFF72F
:10209000B7FF04E000F086F8204600F084F82777C8
:1020A000E80616D5F00614D521686FF01000086117
:1020B000082020772068C06910F4407F204602D0B5
:1020C000FFF79EFF04E000F06DF8204600F06BF88B
:1020D0002777E80708D0F00706D021686FF00100E5
:1020E0000861204600F060F8280601D4A80408D54D
:1020F000300606D521686FF4025008612046FFF7CC
:1021000074FEE80508D5300606D521686FF48070A6
:1021100008612046FFF768FE680608D5700606D5F8
:1021200021686FF040000861204600F07BF8A806A7
:1021300008D5B00606D521686FF02000086120465A
:10214000FFF754FEE80208D5F00206D521686FF4C7
:10215000801008612046FFF74BFEA80208D5B002A8
:1021600006D521686FF4001008612046FFF73FFE96
:10217000680208D5700206D521686FF480000861F6
:102180002046FFF736FE28020AD5300208D521681E
:102190006FF4000008612046BDE8F041FFF778BE0B
:1021A000BDE8F0817047704710B5174B02680021F9
:1021B0009A4207D1154A13681BB113685B1E13605E
:1021C00000E011600068124A90421CD111480122BF
:1021D000437B43B1037B5B1CDBB20373642B02D3F1
:1021E0004173017382730C48008800280BD00B48A0
:1021F00041F2707403885B1C9BB20380A34202D33C
:1022000001800748028010BD0010004054000020EB
:102210000014004000000020A2000020A0000020C8
:10222000A4000020704790F88410012918D00121E3
:1022300080F884102421C0F8881001680A680B68AF
:1022400023F001030B6022F0005100224266036874
:1022500019602021C0F8881080F88420104670474B
:10226000022070477047704770B5044690F88400AC
:1022700001281DD0012084F884002420C4F888009F
:1022800020680568026822F0010202602068826806
:1022900022F060620A438260204602F05BF9206807
:1022A00005602020C4F88800002084F8840070BDF8
:1022B000022070BD70B5044690F8840001281DD03E
:1022C000012084F884002420C4F888002068056870
:1022D000026822F0010202602068826822F06042F7
:1022E0000A438260204602F035F92068056020200C
:1022F000C4F88800002084F8840070BD022070BDFE
:1023000070477047704700002DE9F04103680446AC
:10231000D86919689A6840F60F0528424FF0000501
:102320004FF002060AD187067ED501F0200702F0A1
:10233000805C57EA0C0777D0616F42E1B64FDFF857
:10234000DCC2174001EA0C0C57EA0C0C6CD05FEAB7
:10235000C07C0CD05FEAC15C09D54FF0010CC3F81A
:1023600020C0D4F8903043F00103C4F890308307C4
:1023700009D5D30707D023681E62D4F8903043F004
:102380000403C4F8903043070AD5D30708D0266861
:1023900004233362D4F8903043F00203C4F8903041
:1023A00003070CD501F020033B4308D0266808231F
:1023B0003362D4F8903043F00803C4F8903003053A
:1023C0000BD54B0109D526684FF400633362D4F86E
:1023D000903043F02003C4F89030D4F89030002BB4
:1023E0003DD0800609D501F0200002F0805108435D
:1023F00003D0616F09B120468847D4F89000216866
:102400008968490602D410F0280F2AD0204602F02D
:1024100001FA2068806840061ED52068083050E820
:10242000001F21F0400100E021E040E80012002AF6
:10243000F3D1D4F8800078B179498163D4F8800071
:10244000FEF7EBFA00280AD0D4F88000816B00E098
:102450002046BDE8F04108472046FFF753FFBDE89E
:10246000F0812046FFF74EFFC4F89050F7E7D4F80C
:102470006CC02027BCF1010F7ED15FEAC06C7BD518
:102480005FEAC16C78D51020186220688068400629
:1024900051D5D4F880100A6850680004000C3ED072
:1024A000B4F85C3083423AD9A4F85E00086800684A
:1024B00080062CD4216851E8000F20F4807041E898
:1024C0000002002AF6D12068083050E8001F21F0F1
:1024D000010140E80012002AF5D12068083050E8D8
:1024E000001F21F0400140E80012002AF5D1C4F895
:1024F0008C70E566216851E8000F20F0100041E87B
:102500000002002AF6D1D4F88000FEF751FA2667BF
:10251000B4F85C00B4F85E10401A81B207E0B4F879
:102520005C1081429BD11068800698D526672046B2
:10253000FFF798FE93E7B4F85C00B4F85E10401A19
:1025400081B2B4F85E00002889D0002987D02268C3
:1025500052E8000F20F4907042E80003002BF6D1FF
:102560002D4BDB432068083050E8002F1A4040E82C
:10257000002CBCF1000F00E00EE0F3D1C4F88C7029
:10258000E5666567206850E8002F22F0100240E8F9
:102590000023002BF6D1C9E7C60209D5560207D59C
:1025A0004FF4801018622046BDE8F041FFF7A9BE45
:1025B00003060AD501F0800302F40002134304D09D
:1025C000A16F00297FF444AF49E7420611D54A06BE
:1025D0000FD52046016851E8002F22F0400241E863
:1025E0000023002BF6D1C0F88870856700F0CEFA82
:1025F00035E7020206D54A0004D52046BDE8F04181
:10260000FFF77EBEC00195D5002993DA2046BDE8CC
:10261000F041FFF728BE0000010000102001000477
:102620000D47000810B5040003D0D4F8880010B19D
:1026300007E0012010BD002084F88400204600F04F
:1026400027F82420C4F888002068016821F00101DF
:102650000160A06A10B1204601F09EFF204602F002
:1026600083FB0128E6D02068416821F49041416055
:102670002068816821F02A0181602068016841F0AA
:10268000010101602046BDE8104001F0E9BF0000F3
:102690002DE9F04397B08046142111A8FDF787FF7C
:1026A00044216846FDF783FF5549D8F80000554C92
:1026B0000727022600254FF0904988422AD10120A1
:1026C000CDE900056846FEF7EDFE08B1FEF7A2F879
:1026D000206E40F480402066206E00F4804016900A
:1026E000E06C40F00100E064E06CCDE9126500F0C0
:1026F000010016904FF4C060CDE91457119011A954
:102700004846FEF7DBFA002201212520FEF732FEC3
:1027100025202AE03C4988422CD168460096029543
:10272000FEF7C0FE08B1FEF775F8A06D40F400306A
:10273000A065A06D00F400301690E06C40F0010040
:10274000E064E06CCDE9126500F0010016900C2009
:10275000CDE91457119011A94846FEF7AFFA0022AF
:1027600001212620FEF706FE2620FEF7F5FD17B014
:10277000BDE8F08325498842F9D1042000900395F3
:102780006846FEF78FFE08B1FEF744F8A06D40F4EE
:102790008020A065A06D00F480201690E06C40F0D1
:1027A0000200E064E06CCDE9126500F002001690D2
:1027B0004FF44060CDE91457119011A91448FEF769
:1027C0007DFA154C134820601C20C4E901058020C7
:1027D000C4E903506561A561E56120462562FEF705
:1027E000B5F908B1FEF716F8C8F880400022114686
:1027F0002720C4F82880FEF7BDFD2720B5E700009C
:1028000000380140001002400044004000480040F1
:1028100000040048080002406403002030B4D0F8EF
:102820008C30202B02D0022030BC7047A9B1A2B15D
:102830000023C3660A4C0368A3420BD05B681B02EB
:1028400008D5046854E8003F43F0806344E800354D
:10285000002DF6D130BC02F0C1BB0120E4E700003E
:102860000080004030B4D0F88C30202B02D0022001
:1028700030BC7047A9B1A2B10023C3660A4C0368FB
:10288000A3420BD05B681B0208D5046854E8003FE4
:1028900043F0806344E80035002DF6D130BC02F0EF
:1028A000F1BB0120E4E70000008000402DE9F05F6B
:1028B000074600687849794C884209D101222146AF
:1028C0007748FFF7CFFF77482178806801F09DFBBC
:1028D0007549386800250126884259D1012273497B
:1028E0007348FFF7BFFF2179704802234FF00308B8
:1028F0004FF004094FF0050A4FF0060B61B10129B2
:102900000FD0022912D0032917D004291BD0052982
:1029100020D0062924D02DE0017823292AD1267140
:1029200028E00178502925D1237123E00178614AFC
:102930003039117084F804801CE001785F2919D1C6
:1029400084F8049016E001785B4A3039117084F8FD
:1029500004A00FE001783D290CD184F804B009E00F
:102960000278212A15D0DFF854C161790CF80120D2
:10297000491C6171A179A1B1012917D002291AD08E
:1029800003291ED0042922D0052926D006292AD0C1
:1029900032E04B4A617911704A49657125710E70B8
:1029A000E8E70078402827D1A67125E0007846287E
:1029B00022D1A37120E000786C281DD184F8068014
:1029C0001AE00078612817D184F8069014E00078A6
:1029D000672811D184F806A00EE000783D280BD1BD
:1029E00084F806B008E0007821281BD0364AE17947
:1029F00030385054491CE17134493868884233D129
:102A0000264901220B313248FFF708FFA07C00283D
:102A10002AD1E078012827D1E17AAA2907D05529BF
:102A200007D009E02B48A5710670E571E4E726722E
:102A300002E0207A012819D0607A012814D1607C44
:102A4000254AB0B101280FD1A07A431CA3720028F7
:102A50000AD0E07B1154401CC0B2E073042803D3B9
:102A6000E5736572A572A674BDE8F09F2572667263
:102A7000E5E7A07A431CA3720028F5D0E07B11544F
:102A8000401CC0B2E0731428EED3E5736572A572E2
:102A9000A6746674E8E700000038014000000020DA
:102AA000A8010020EC070020004400405C0000204A
:102AB0003C0200205E0000205F000020F80700209C
:102AC0005D000020600000205C08002000480040FD
:102AD000D002002061000020A800002070472DE9EE
:102AE000F8430446D0F88800984616460D4620283C
:102AF00002D00220BDE8F883A5B19EB10020C4F841
:102B000090002120C4F888001834FEF705FAA68743
:102B10008146E68754F8100C2027183CB0F5805FFA
:102B200002D003E00120E5E7206910B12E46002520
:102B300010E000260EE08021204602F02BFBC0B9F9
:102B4000DEB116F8010B21688862B4F85600401E09
:102B5000A4F85600B4F856004B464FF00002CDF8EA
:102B600000800028E7D14FF04001204602F012FB20
:102B700040B1C4F888700320BCE735F8020BC0F3FD
:102B80000800E0E7C4F888700020B3E77047FEE76C
:102B900001688A69D243920701D400228A620068E0
:102BA0008169C943C90703D0816941F0010181618D
:102BB000704700002DE9F04704460068894600266A
:102BC000816935461746C9064FF0200841D51021C6
:102BD000C1612FE0B9F1FF3F2CD0FEF79DF9C11B79
:102BE000494502D8B9F1000F24D12068416894F812
:102BF000422001F480418369DB431B0415D4B1F505
:102C0000804F12D0202A10D0416841F480414160A9
:102C1000FEF782F9074608E0FEF77EF9C01B192887
:102C200003D945F02005012604E020688069C043EF
:102C30008006F1D420688069C043800602D5002E4A
:102C4000C8D003E016B92168C1F81C8045F004051E
:102C5000012621688869C20505D54FF4807245F0C8
:102C60000105CA610126410509D522684FF480613A
:102C700045F00805D1610126800502D40AE08005EF
:102C800007D521684FF4007045F00205C8610126A0
:102C900000E086B12046FFF77BFF54F8240B416823
:102CA000064A11404160206A2843206284F81D8052
:102CB0000020A07720773046BDE8F08700E800FECE
:102CC0002DE9F8430446164615489846DDE908976D
:102CD000DAB2C3020090204600F024F83A46494692
:102CE000204600F09FF8B8B9F5B2B8F1010F08D04E
:102CF0002168300A88623A464946204600F092F838
:102D000050B9206885624B460022802120460097FA
:102D100000F020F8002800D00120BDE8F883000072
:102D20000020008010B5C1F3090141EA02410268A8
:102D3000029C19432143506821F000414FF4806305
:102D400003EA5453024C234398430843506010BD98
:102D5000FF63FF032DE9F0411D4617460E4604466A
:102D6000DDF8188027E0424629462046FFF722FF7B
:102D700010B10120BDE8F081681C1CD0FEF7CCF832
:102D8000A0EB0800A84200D8ADB92068806936EAF7
:102D900000000ED00020B8420DD154F8440F40F08E
:102DA000200044F80409202060700020A0702070EA
:102DB000DFE70120EFE72068806936EA000004D0F1
:102DC0000020B842CFD00020D4E70120F9E770B549
:102DD00016460D4604461EE0324629462046FFF7B9
:102DE000E9FE08B1012070BDFEF796F8801BA842ED
:102DF00000D885B920688069C04380060BD554F897
:102E0000440F40F0200044F80409202060700020A6
:102E1000A0702070E6E720688069C0438006DBD49C
:102E2000002070BD70B516460D46044620E03246BF
:102E300029462046FFF7BEFE08B1012070BD681C80
:102E400016D0FEF769F8801BA84200D885B9206823
:102E50008069C04380070BD554F8440F40F0200030
:102E600044F80409202060700020A0702070E4E77E
:102E700020688069C0438007D9D4002070BD10B598
:102E800090B0044603AA3221684601F084F86946EE
:102E9000204600F00AF8684601F04AF8401E81B268
:102EA000684601F063F810B010BD70B50D460446D9
:102EB0000188284601F0D1F8A178284601F0BCF835
:102EC000E178284601F0B8F82179284601F0B4F8F5
:102ED000E078022805D0801E82B2611D284601F0EC
:102EE000ADF8284601F02FF801462846BDE87040AD
:102EF00001F0A2B870B590B004464FF6FF75149873
:102F0000ADF800508DF802108DF803208DF80430D4
:102F100000216B46921E03E0455C5E18491C7571EA
:102F20009142F9DB18466168FFF7BFFF204602F0C7
:102F30006AFA10B070BD000010B50C4C01220221DD
:102F40002046FDF7E4FF012204212046FDF7DFFFC4
:102F5000074C012210212046FDF7D9FF204601220F
:102F6000BDE810402021FDF7D2BF0000000400485A
:102F7000000800482DE9F05F0027DFF818B3044689
:102F800007703A4602215846FDF7C1FF4FF09049BD
:102F900040214846FDF7B6FFDFF8FC82BF4DDFF861
:102FA00000A3012670B180214846FDF7ABFF48B170
:102FB00001214846FDF7A6FF20B108215046FDF744
:102FC000A1FF70BB88F80060B648FEF7C5FF2878FF
:102FD00038B3B448FEF7FCFF40214846FDF792FFA6
:102FE00078B180214846FDF78DFF90B10121484618
:102FF000FDF788FFB0B108215046FDF783FFC8B147
:1030000020E040214846FDF77DFF0028F9D02670DA
:1030100018E080214846FDF775FF0028F9D002200E
:103020000FE010E001214846FDF76CFF0028F9D0C1
:10303000032006E008215046FDF764FF0028F9D080
:10304000042020702F70012202215846FDF75FFFF7
:10305000002204215846FDF75AFF40214846FDF75B
:1030600051FF70B180214846FDF74CFF48B1012166
:103070004846FDF747FF20B108215046FDF742FFC3
:10308000B0BB88F800608748FEF766FF287878B301
:103090008448FEF79DFF40214846FDF733FF78B195
:1030A00080214846FDF72EFF90B101214846FDF7EB
:1030B00029FFA8B108215046FDF724FFC8B120E040
:1030C00040214846FDF71EFF0028F9D0052017E0F3
:1030D00080214846FDF716FF0028F9D006200FE0B2
:1030E00001214846FDF70EFF0028F9D0072007E030
:1030F00008E008215046FDF705FF0028F9D0082018
:1031000020702F70012204215846FDF700FF002295
:1031100010215046FDF7FBFE40214846FDF7F2FE28
:1031200070B180214846FDF7EDFE48B101214846C7
:10313000FDF7E8FE20B108215046FDF7E3FE70BB25
:1031400088F800605748FEF707FF287838B35548DD
:10315000FEF73EFF40214846FDF7D4FE78B18021BE
:103160004846FDF7CFFE90B101214846FDF7CAFE63
:10317000B0B108215046FDF7C5FEC8B120E040219E
:103180004846FDF7BFFE0028F9D0092017E080214E
:103190004846FDF7B7FE0028F9D00A200FE010E0FE
:1031A00001214846FDF7AEFE0028F9D00B2006E0CD
:1031B00008215046FDF7A6FE0028F9D00C2020700B
:1031C0002F70012210215046FDF7A1FE0022202180
:1031D0005046FDF79CFE40214846FDF793FE70B136
:1031E00080214846FDF78EFE48B101214846FDF793
:1031F00089FE20B108215046FDF784FE80BB88F887
:1032000000602848FEF7A8FE287848B32548FEF756
:10321000DFFE40214E464846FDF774FE80B1802116
:103220003046FDF76FFE98B101213046FDF76AFE8A
:10323000B8B1082156465046FDF764FEC8B120E0FB
:1032400040213046FDF75EFE0028F9D00D2017E042
:1032500080213046FDF756FE0028F9D00E200FE001
:1032600010E001213046FDF74DFE0028F9D00F2077
:1032700006E008213046FDF745FE0028F9D0102071
:1032800020702F705046BDE8F05F01222021FDF72D
:103290003EBE0000000400480D0000200E0000208B
:1032A000000800485C010020F8B500251023012427
:1032B00020A229461846009500F00AFC102321A2FE
:1032C00002211846009500F003FC224E2148FFF72A
:1032D00051FE3078012804D0032819D004281BD0CF
:1032E00003E0641C032C00DB0124012C17D0022C0A
:1032F000ECD10021102320220846009500F09AFB13
:1033000010232A2200950221002000F093FBDDE724
:1033100000F054FB2046F8BD00F050FBF8BD002142
:1033200010232A220846009500F084FB1023202257
:103330000095E8E750454E535452494E475F4D4F74
:103340005645000052454354414E474C455F4D4F52
:10335000564500001400002070B51D482DED028B6D
:103360000188C088084402F0F5F99FED1A8B53ECF0
:10337000182B02F03FFA02F0A9F985B2174C184851
:10338000258001884088084402F0E4F953EC182BAA
:1033900002F030FA02F09AF9608000EE105A1148FB
:1033A000114DB8EE400A01780022286801F0FCFFB8
:1033B0006088002200EE100A0C48B8EE400A01783E
:1033C0002868BDEC028BBDE8704001F0EDBF000045
:1033D00070000020000000000000E03F2A000020F4
:1033E000780000200100002058000020020000208A
:1033F0007FB500F035F8114D114E00240021102347
:1034000010A20846009400F063FB01940294039418
:103410006B882A880FA101A8FCF7CAFF102301AA14
:1034200002210020009400F053FB0548FFF7A2FDA5
:1034300030780428E2D100F0C1FA7FBD2A000020D4
:103440001400002052657365745F506F696E743AA2
:1034500000000000282534642C2534642900000075
:103460002DE9F04111480078D8B1114E114D124CA0
:1034700001270F48FFF77EFD30780D2804D0207813
:103480000028F6D1BDE8F0812878C04310F0FF0095
:10349000287003D0FFF760FF2770EAE70020207054
:1034A000F0E7BDE8F041FFF757BF00001000002033
:1034B0001400002015000020280000202DE9F84FFE
:1034C0000024554D554E564FDFF858A1DFF858816E
:1034D000DFF85891DFF858B100F04CFB2C606C60BD
:1034E0002C7233883A8853A14B48FCF761FF0021C6
:1034F0001023494A0846009400F0EAFAC5F809404A
:10350000C5F80D406C74444873887A8849A1093025
:10351000FCF74EFF404A102309320221002000949C
:1035200000F0D6FAC5F81240C5F81640AC763A4815
:10353000B388BA883FA11230FCF73AFF364A10230D
:10354000123204210020009400F0C2FAC5F81B409A
:10355000C5F81F4085F823402F48F388FA8835A125
:103560001B30FCF725FF2C4A10231B3206210020BC
:10357000009400F0ADFA2C48FFF7FCFC98F800002E
:10358000042820D0092822D00A2828D00B283BD094
:103590000C28A1D19BF80010D9F8000001F056FECC
:1035A000113880B200906420FDF776FB00989BF8FC
:1035B000001000EE100A0022B8EE400AD9F8000010
:1035C00001F0F2FE88E7BDE8F84F00F0F7B99AF88D
:1035D0000010D9F8000001F039FE113006E09AF829
:1035E0000010D9F8000001F031FE113880B20090CF
:1035F0006420FDF751FB0098002200EE100A9AF8B3
:103600000010B8EE400AD9E79BF80010D9F8000086
:1036100001F01CFE1130C4E7C40300207800002034
:10362000700000200100002014000020580000203D
:1036300002000020282534642C2534642900000071
:103640000D4808B5816C41F004018164816C01F082
:1036500004010091816C41F001018164806C0022C1
:1036600000F00100009011460B20FDF783FEBDE83D
:1036700008400B20FDF770BE001002402DE9F0431A
:1036800087B014216846FCF792FF3248C16C41F0C4
:103690002001C164C16C01F020010591C16C41F0B1
:1036A0000401C164C16C01F004010591C16C41F0D9
:1036B0000101C164C16C01F001010591C16C41F0CF
:1036C0000201C164C06C4FF4917600F002004FF02B
:1036D00090470590002231463846FDF718FCDFF888
:1036E0007880002230214046FDF711FCDFF86C9015
:1036F000002207214846FDF70AFC08200024012586
:103700008DE8310069464046FDF7D8FAC1208DE8C2
:10371000310069463846FDF7D1FA0096CDE90154EB
:10372000694638460394FDF7C9FA30200090CDE988
:103730000154694640460394FDF7C0FA0720009003
:10374000CDE90154694648460394FDF7B7FA07B03E
:10375000BDE8F08300100240000800480004004863
:10376000144810B51249016013494160002101223B
:10377000C0E90212016141618161C1610162FDF72D
:1037800039FC08B1FDF746F800210A48FDF7CAFBED
:1037900008B1FDF73FF800210648FDF7EEFB08B140
:1037A000FDF738F8BDE810404FF48010FDF70EBC6F
:1037B00000540040BC0000200F0652403EB50024DB
:1037C0000F48009401940D4902940160A921C0E9B9
:1037D000011440F2E7318461C160FEF75AFB08B181
:1037E000FDF718F80094694605480294FEF702FBBD
:1037F000002801D0FDF70EF83EBD0000001000408B
:10380000100100203EB500240F48009401940D499A
:1038100002940160A921C0E9011440F2E7318461FA
:10382000C160FEF736FB08B1FCF7F4FF009469466F
:1038300005480294FEF7DEFA002801D0FCF7EAFF03
:103840003EBD0000001400405C01002070B5204C1B
:103850001E480C2120604FF4E13060600020A06021
:10386000E060C4E90401A061E06120626062A062DE
:103870002046FEF7D7FE08B1FCF7CCFF0021144824
:10388000FEF718FD08B1FCF7C5FF00211048FEF750
:10389000EBFC08B1FCF7BEFF0D48FEF7C4FC08B115
:1038A000FCF7B8FF0B4D0C4A0C482C604FF4FA742F
:1038B000214600F070FB0A4A21460A4800F06BFBE3
:1038C0000848A8600548686070BD000000380140E5
:1038D000A8010020EC070020E8030020D407002006
:1038E000DD050020E0070020184810B516490160EA
:1038F0004FF4E1314160002181600C22C160C0E9D8
:1039000004128161C161016241628162FEF78AFE37
:1039100008B1FCF77FFF00210C48FEF7CBFC08B193
:10392000FCF778FF00210948FEF79EFC08B1FCF780
:1039300071FF0648FEF777FC002803D0BDE8104071
:10394000FCF768BF10BD0000004400403C020020AE
:10395000184810B5164901604FF4E131416000216B
:1039600081600C22C160C0E904128161C161016201
:1039700041628162FEF756FE08B1FCF74BFF002161
:103980000C48FEF797FC08B1FCF744FF00210948FA
:10399000FEF76AFC08B1FCF73DFF0648FEF743FC62
:1039A000002803D0BDE81040FCF734BF10BD000074
:1039B00000480040D0020020FEE7FEE770B500247A
:1039C00004F1B000C0B200F0AFF8002000F0ACF895
:1039D000102000F0A9F80025002000F0B7F86D1CB9
:1039E000EDB2802DF8D3641CE4B2082CE8D370BD8E
:1039F00070B5C820FDF750F9044D0024285D00F093
:103A000093F8641CE4B2172CF8D370BD2E0000208C
:103A100010B50446B031C8B200F086F8102040EA74
:103A2000141000F081F804F00F00BDE8104000F021
:103A30007BB800002DE9F047203A0024089E0F468D
:103A40008146D5B27F2803D900208F1C8146FFB262
:103A5000102B394612D0FFF7DBFF1B4905EB450061
:103A600001EB4005285D0EB1C043C0B200F06EF816
:103A7000641CE4B2062CF5D3BDE8F087FFF7C8FF5D
:103A8000DFF8488004EB051118F801000EB1C043BF
:103A9000C0B200F05BF8641CE4B2082CF2D37F1CC7
:103AA000F9B24846FFF7B4FF0024474604EB05107F
:103AB0003844007A0EB1C043C0B200F047F8641C2D
:103AC000E4B2082CF2D3D7E73A5A0008625C000847
:103AD0002DE9F8431E461746894604460025DDF8C1
:103AE000208014E0334649462046CDF80080FFF799
:103AF000A1FF0C2E10D00834E4B27A2C01D90C2E80
:103B00000CD0782C01D9102E08D06D1CEDB27A5D46
:103B1000002AE7D1BDE8F883A41DEDE709F1010013
:103B2000002400F0FF09F0E701B584B001214FF453
:103B3000807204A88DE807000B4600227821024815
:103B4000FDF7B6FA05B000BDBC00002001B584B099
:103B500001214FF4807204A88DE807000B46402233
:103B600078210248FDF7A4FA05B000BDBC00002092
:103B7000704700002DE9F0411C4C1D4E1D4D207872
:103B80001D4F401F032814D83178286801F05EFBD0
:103B90001A49227801EB420121F80A0C3978286889
:103BA00001F054FB15492278083101EB420121F85C
:103BB0000A0C20780D38032815D83178286801F0D0
:103BC00045FB0E492278103101EB420121F81A0C15
:103BD0003978286801F03AFB08492278183101EB5E
:103BE000420121F81A0CBDE8F08100001400002009
:103BF000010000205800002002000020700000207A
:103C00002DE9F05F8F4D00272DED048B4FF0030859
:103C1000A5F10804DFF82492894EDFF82CA29FED6D
:103C20008B8B29E020886188002201448548083078
:103C300000880144B1FBF8F000EE100A99F800107A
:103C40003068B8EE400A01F0AFFB298807EB870027
:103C5000401D084400EE100A00229AF80010B8EE49
:103C6000400A306801F0A0FBFFF7FAFBEFB1322009
:103C7000FDF712F87F1CBFB268882988401A01F04E
:103C800052FD53EC182B01F0B5FD41EC190B3846F1
:103C900001F060FD53EC192B01F070FDC2D3DFF889
:103CA000A4B100270BF1100B2CE0FA20E0E77842DA
:103CB000618800EB8000401F084400EE100A0022DB
:103CC00099F80010B8EEC00A306801F06DFB688802
:103CD000A98800220144BBF802000144B1FBF8F0BE
:103CE00000EE100A9AF800103068B8EE400A01F0B1
:103CF0005BFBFFF7B5FBD7B15FF03200FCF7CCFF01
:103D00007F1CBFB26088A188401A01F00CFD53EC03
:103D1000182B01F06FFD41EC190B384601F01AFD2C
:103D200053EC192B01F02AFDC1D300272CE0FA2017
:103D3000E4E7A088E18800220144424808308088F6
:103D40000144B1FBF8F000EE100A99F80010306859
:103D5000B8EE400A01F028FB7842A98800EB800009
:103D6000401F084400EE100A00229AF80010B8EE36
:103D7000C00A306801F018FBFFF772FBCFB13220A8
:103D8000FCF78AFF7F1CBFB2A888E988401A01F0BF
:103D9000CAFC53EC182B01F02DFD41EC190B3846F1
:103DA00001F0D8FC53EC192B01F0E8FCC1D300273B
:103DB0002AE0FA20E4E7E18807EB8700401D084489
:103DC00000EE100A002299F80010B8EE400A3068A0
:103DD00001F0EAFAE888298800220144BBF80600CD
:103DE0000144B1FBF8F000EE100A9AF800103068B8
:103DF000B8EE400A01F0D8FAFFF732FBC7B1322023
:103E0000FCF74AFF7F1CBFB22088E188401A01F00E
:103E10008AFC53EC182B01F0EDFC41EC190B3846F1
:103E200001F098FC53EC192B01F0A8FC02D2C2E778
:103E3000FA20E5E7BDEC048BBDE8F09F010000200F
:103E40005800002078000020020000209A999999DB
:103E50009999C93F00EE100AB2EE041AB8EE400A72
:103E600004E000BFC0EE010AB0EE600A491EC9B20C
:103E7000F8D27047F8B500251023012420A2294666
:103E800018460095FFF724FE102321A202211846B0
:103E90000095FFF71DFE214E2048FFF76BF83078A4
:103EA000012804D0032819D004281BD003E0641C87
:103EB000032C00DB0124012C17D0022CECD10021B3
:103EC0001023202208460095FFF7B4FD10232A2274
:103ED000009502210020FFF7ADFDDDE7FFF76EFD45
:103EE0002046F8BDFFF76AFDF8BD002110232A2205
:103EF00008460095FFF79EFD102320220095E8E775
:103F00005345545F52454354414E474C45000000D1
:103F100053544152545F4D4F564500001400002049
:103F200000B503895B1E00F003F8181A80B200BDCB
:103F30008288C1888A4203D90089511A401A00E058
:103F4000881A80B27047F0B50746FFF7F1FF0025E9
:103F50000646022405E0A1B2384600F007F8054401
:103F6000641CB442F7DBE843C0B2F0BD10B50C46A8
:103F70000346FFF7DDFFA04201D8002010BD98885E
:103F8000641C19892044B0FBF1F201FB120019688E
:103F900080B2085C10BD026000228280C280491C91
:103FA0000181114603E003685A54491C89B2038910
:103FB0008B42F8D8704710B50446FFF7B1FF21894E
:103FC000491E89B2884201D1012010BD002010BDD8
:103FD00000B5FFF7A5FF08B1002000BD012000BD1E
:103FE00010B50446FFF7E7FF08B1002010BDA08818
:103FF0002189401CB0FBF1F201FB120081B2A180CB
:1040000022680023505C535410BD30B50D46044661
:10401000FFF7DEFF10B12046FFF7E2FFE0882189BD
:10402000401CB0FBF1F201FB120080B2E08021687D
:104030000D5430BDFFF7D4BFFFF7E7BFF0B515460D
:104040000E460746002405E0315D3846FFF7DDFFE8
:10405000641CA4B2AC42F7D3F0BD03B501A902229F
:10406000FFF7ECFF0CBD0000F0B50025012306466C
:10407000DFED191A1C462A46184F0EE0B05C2D28B9
:1040800015D0BDB13038C0B21946FFF7E3FE70EE6F
:10409000211A5B1CDBB2521CD2B238788242EDD3BB
:1040A00000EE104AB8EEC00A21EE800AF0BD4FF0D3
:1040B000FF34F0E72E280CD000EE100AF2EE040ACE
:1040C000B8EE400A01EEA00ADFED050A70EE601AB4
:1040D000E1E70125DFE70000000000005D000020AF
:1040E0000000404270470000081A01EE900A124991
:1040F000F8EEE11A4A68024460EE211A00EE102A36
:104100004A600B68B8EEC00AC31A08604FF4967193
:1041100040EE801A00EE103AB8EEC00A41EE401AA6
:10412000BDEEE10A10EE100A884202DC49428842E4
:1041300000DA084670470000640000202DE9F041D5
:10414000044637480D460078012866D13548FCF70B
:10415000D5FBFCF721FC012813D1FCF70BFC324EF8
:104160003070FCF70FFC314F38703148FFF77CFF9F
:104170003048317800EB0110397800EB810000ED18
:10418000040A2E499FED2C0ADFED2D0A9FED2D1A12
:10419000244E81EC030A21463068FFF7A5FFA6F103
:1041A00008042946206025480C3090EC030A70680A
:1041B000FFF79AFF244F254D60603978286801F099
:1041C00045F82C3EDFF888803080286898F8001089
:1041D00001F03CF870806420FCF75EFD30882168B7
:1041E000401A01F03DF900EE100A00223978B8EECD
:1041F000C00A286801F0D8F870886168401A01F098
:104200002FF900EE100A98F800102868BDE8F04178
:10421000B8EEC00A002201F0C7B8BDE8F081000086
:10422000120000209800002062000020630000209F
:10423000F8070020C00800208FC2753DE00800206C
:1042400000000000D578E93D010000205800002062
:1042500002000020F0B54C4802680A6042684A60DB
:10426000836802681A4402EBD27252100A61C46871
:104270004368234403EBD3735B104B61046814441D
:1042800004EBD47464108C6044681C4404EBD47454
:104290006410CC608468224402EBD27252108A61AE
:1042A000C2681A4402EBD2725210CA6185680D626C
:1042B000C2684A6284692B1903EBD3735E100E63E4
:1042C000C3693544D71807EBD7777F103A4405EB1D
:1042D000D57502EBD2726D105210C1E90A52A219C3
:1042E00002EBD2725210C1E90D72DA1902EBD272EE
:1042F0005210CA6302690A64A61806EBD6764569AD
:1043000077105E1906EBD676761004EB070C0CEBF3
:10431000DC7C4FEA6C0CC1E9115C03EB060C0CEB86
:10432000DC7C4FEA6C0CC1F84CC0C1E91476174430
:104330002E44C1E9184307EBD77706EBD6767F10FA
:104340007610C1E916760468131903EBD3735B107A
:104350000B6746681A44A81902EBD27200EBD070C2
:10436000521040108A662A1802EBD2725210CA66A6
:10437000E21802EBD2725210C1E91D02304400EB88
:10438000D0704010C867F0BDF8080020FCF792BF5D
:1043900000B593B038216846FCF709F914210EA83E
:1043A000FCF705F90020FDF717F80220C101039181
:1043B000402104910421CDE9080100905521CDE967
:1043C0000A1007900C900D906846FDF7F7FA08B1B7
:1043D00072B6FEE70F200E9003200F900020109081
:1043E0001190129004210EA8FDF7A0F9002801D029
:1043F00072B6FEE713B000BD0248016841F47001D7
:104400000160704788ED00E00148FDF7FABD00004B
:10441000100100200148FDF7F4BD00005C01002000
:104420002DE9F0430268264B264D274E274C4FF0CE
:104430008049984207D0484505D0A84203D0B042F1
:1044400001D0A04203D122F070074A683A43204FBE
:10445000DFF880C0DFF8808098420DD048450BD04F
:10446000A84209D0B04207D0A04205D0B84203D03C
:10447000604501D0404503D122F44075CA682A4303
:104480004D6922F080022A4302608A68C2620A688B
:104490008262984207D0A04205D0B84203D060455E
:1044A00001D0404501D109690163012141610169E0
:1044B000C90703D0016921F001010161BDE8F08362
:1044C000002C01400004004000080040003401407E
:1044D00000400140004401400048014011B403493C
:1044E0000098086018BC0248FDF736BD5400002053
:1044F000100100200249002008600248FDF768BD55
:1045000054000020100100200348006808B100207A
:1045100070470120704700005400002011B4034987
:104520000098086018BC00F003B800005400002098
:1045300010B50648FDF710FD054801680029FCD1BB
:10454000BDE810400148FDF743BD00001001002008
:104550005400002030B5416EB9B10268916892688C
:10456000C1F342610B4B520F9C5CE50003F1080460
:10457000A25CB5FBF2F2A0F86A205A5C615CD20042
:10458000B2FBF1F1A0F8681030BD0121A0F86A106B
:10459000F8E70000125A000890F82810090706D51D
:1045A00001684A68836B22F400421A434A6090F81B
:1045B0002810C90706D001684A68C36A22F400328D
:1045C0001A434A6090F82810890706D501684A689E
:1045D000036B22F480321A434A6090F8281049078E
:1045E00006D501684A68436B22F480221A434A6068
:1045F00090F82810C90606D501688A68C36B22F4B2
:1046000080521A438A6090F82810890606D50168FE
:104610008A68036C22F400521A438A6090F82810CA
:10462000490611D501684A68436C22F480121A4386
:104630004A60416CB1F5801F06D101684A68836CFD
:1046400022F4C0021A434A6090F82810090606D5E1
:1046500001684A68C06C22F4002202434A60704735
:104660002DE9F84300260446C0F89060FCF754FC9E
:104670008046206800684FF0200500076FF07E47F5
:1046800013D54346002229042046009700F082FDFE
:1046900058B1216851E8000F20F0800041E8000285
:1046A000002AF6D1C4F8885021E02068006840074D
:1046B00022D5434600224FF480012046009700F0A7
:1046C00069FDC8B1216851E8000F20F4907041E8FD
:1046D0000002002AF6D12068083050E8001F21F0BF
:1046E000010140E80012002AF5D1C4F88C5084F88A
:1046F00084600320BDE8F883C4F88850C4F88C5067
:1047000044F86C6F666026760020F3E710B5806A87
:104710000021A0F85E10FDF7F5FD10BD70B5846AAC
:10472000D4F88800D4F88C50216889684FF00006CE
:10473000090606D5212804D1A4F85660204600F0C9
:1047400093F820688068400606D5222D04D1A4F88D
:104750005E60204600F05EF8D4F8900040F0100053
:10476000C4F890002046FDF7CDFD70BD10B50146A0
:10477000806A096809684FF0000289062DD4A0F804
:104780005E20036853E8001F21F4807143E80014A1
:10479000002CF6D10168083151E8003F23F00103F5
:1047A00041E80034002CF5D10168083151E8003FA0
:1047B00023F0400341E80034002CF5D12021C0F85B
:1047C0008C10C16E012908D1016851E8003F23F027
:1047D000100341E80034002CF6D10267C16E0129B4
:1047E00002D0FEF763F810BDB0F85C10FDF73AFD9B
:1047F00010BD10B5806A01210167C16E012902D088
:10480000FEF76CF910BDB0F85C104908FDF72AFD01
:1048100010BD000010B5026852E8001F21F490712D
:1048200042E80013002BF6D10E4B0268083252E822
:10483000001F194042E80014002CF6D1C16E012976
:1048400008D1016851E8002F22F0100241E800234E
:10485000002BF6D12021C0F88C100021C1664167E1
:1048600010BD0000FEFFFFEF026852E8001F21F0BC
:10487000C00142E80013002BF6D10168083151E86D
:10488000002F22F4000241E80023002BF5D1202163
:10489000C0F888107047000010B5B0F86020D0F85C
:1048A0008C300168222B04D0886940F008008861B0
:1048B00010BD496A836D11401980816D891C816525
:1048C000B0F85E10491EA0F85E10B0F85E10002926
:1048D000EED1026852E8001F21F4907142E8001303
:1048E000002BF6D10168083151E8002F22F00102B7
:1048F00041E80023002BF5D12021C0F88C100021C5
:1049000041670167154B02689A420BD05268120248
:1049100008D5036853E8002F22F0806243E80024A2
:10492000002CF6D1C26E012A02D0FDF7BFFF10BDE8
:10493000C166026852E8001F21F0100142E800132E
:10494000002BF6D10168CA69D243D20601D41022E5
:104950000A62B0F85C10FDF785FC10BD00800040D5
:104960002DE9F0470446B0F860600068C569D0F8EA
:1049700000A0D0F80890D4F88C10222905D08169C5
:1049800041F008018161BDE8F087B4F868704FF02C
:10499000000844E02068406AA16D30400880A06DA6
:1049A000801CA065B4F85E00401EA4F85E0020687C
:1049B000C569690730D0E9070AD05FEACA5107D54F
:1049C00001210162D4F8900040F00100C4F8900089
:1049D000A8070BD55FEAC97008D0216802200862D9
:1049E000D4F8900040F00400C4F8900068070BD59C
:1049F0005FEAC97008D0216804200862D4F89000EA
:104A000040F00200C4F89000D4F8900020B1204695
:104A1000FDF778FCC4F89080B4F85E0000B30FB1E5
:104A2000A806B7D4B4F85E000028ACD0B4F868107B
:104A30008142A8D92068083050E8001F21F0805139
:104A400040E80012002AF5D12A486067206850E843
:104A5000001F41F0200140E80012002AF6D192E741
:104A6000216851E8000F20F4807041E80002002A1C
:104A7000F6D1214A2068083050E8001F114040E874
:104A80000013002BF6D12020C4F88C00C4F87480E9
:104A90004046C4F87080194A216891420BD0496899
:104AA000090208D5226852E8001F21F0806142E81F
:104AB0000013002BF6D1E16E012903D02046FDF74B
:104AC000F5FEAFE7E066216851E8000F20F0100026
:104AD00041E80002002AF6D12068C169C943C9062D
:104AE00001D410210162B4F85C102046FDF7BAFB36
:104AF00098E7000099480008FEFFFFEF00800040A3
:104B000010B5B0F86020D0F88C300168222B04D0AA
:104B1000886940F00800886110BD496A1140826DC3
:104B20001170816D491C8165B0F85E10491EA0F8B6
:104B30005E10B0F85E100029EED1016851E8002F38
:104B400022F4907241E80023002BF6D1016808316D
:104B500051E8002F22F0010241E80023002BF5D19B
:104B60002021C0F88C10002141670167154B0268B5
:104B70009A420BD05268120208D5036853E8002FFE
:104B800022F0806243E80024002CF6D1C26E012A94
:104B900002D0FDF78BFE10BDC166026852E8001F0F
:104BA00021F0100142E80013002BF6D10168CA6918
:104BB000D243D20601D410220A62B0F85C10FDF78D
:104BC00051FB10BD008000402DE9F0470446B0F8CD
:104BD00060600068C569D0F800A0D0F80890D4F8EB
:104BE0008C10222905D0816941F008018161BDE85E
:104BF000F087B4F868704FF0000844E02068406A1D
:104C0000A16D30400870A06D401CA065B4F85E0036
:104C1000401EA4F85E002068C569690730D0E90726
:104C20000AD05FEACA5107D501210162D4F8900089
:104C300040F00100C4F89000A8070BD55FEAC970E6
:104C400008D0216802200862D4F8900040F00400E7
:104C5000C4F8900068070BD55FEAC97008D02168D6
:104C600004200862D4F8900040F00200C4F89000DC
:104C7000D4F8900020B12046FDF744FBC4F89080A2
:104C8000B4F85E0000B30FB1A806B7D4B4F85E0064
:104C90000028ACD0B4F868108142A8D92068083048
:104CA00050E8001F21F0805140E80012002AF5D1A1
:104CB0002A486067216851E8000F40F0200041E871
:104CC0000002002AF6D192E7216851E8000F20F493
:104CD000807041E80002002AF6D1214A206808309D
:104CE00050E8001F114040E80013002BF6D12020AF
:104CF000C4F88C00C4F874804046C4F87080194A27
:104D0000216891420BD04968090208D5226852E80F
:104D1000001F21F0806142E80013002BF6D1E16E04
:104D2000012903D02046FDF7C1FDAFE7E06620680A
:104D300050E8001F21F0100140E80012002AF6D1CF
:104D40002068C169C943C90601D410210162B4F8C1
:104D50005C102046FDF786FA98E70000014B00083A
:104D6000FEFFFFEF008000402DE9F041044601689E
:104D700080682269E3691043626900251A43104381
:104D8000DFF82CC20A688B4B1A4002430A60206885
:104D90004168E26821F44051114341602168A069F3
:104DA000614501D0226A10438A68834B1A4002434E
:104DB0008A602068C16A626A21F00F011143C162F2
:104DC0007E4923687E488B420DD1D0F8880010F0D0
:104DD000030006D0012855D0022842D003283FD135
:104DE00052E001203DE077498B420BD1D0F888009A
:104DF00010F00C0035D0042833D0082840D00C28FF
:104E00002ED141E070498B420BD1D0F8880010F0D0
:104E1000300026D0102835D0202831D030281FD19E
:104E200032E06A498B420BD1D0F8880010F0C00004
:104E300017D0402826D0802822D0C02810D123E0C7
:104E400063450DD1D0F8880010F4406009D0B0F56A
:104E5000806F17D0B0F5006F12D0B0F5406F13D04F
:104E600010205B495B4F00264FF4004263453BD165
:104E700060B1022813D004280BD0082872D10DE0AD
:104E80000220EEE70420ECE70820EAE7FCF73CFD0F
:104E900001E0FCF75DFD010001D17CE01146606A94
:104EA00037F810206768B1FBF2F007EB4703834245
:104EB00070D8B0EB073F6DD8002308461946FBF7C2
:104EC000FFF9090241EA10610202780810187141E5
:104ED0003A460023FBF7F4F93F4AA0F540719142AE
:104EE00058D82168C86056E0E3694FF6EF789342DE
:104EF0002CD109284ED2DFE800F00508114D0D4DE8
:104F00004D4D1000FCF700FD01E0FCF70FFD010026
:104F100004D140E0FCF71CFDF9E71146606A37F860
:104F20001000B1FBF0F04100606801EB5001B1FBF3
:104F3000F0F0A0F1100141452CD84FF6F07101407E
:104F4000C0F3420001432068C16024E0092821D257
:104F5000DFE800F0050912200E2020201100FCF7E8
:104F6000D3FC02E016E0FCF7E1FC010004D112E002
:104F7000FCF7EEFCF9E71146606A37F81000B1FB68
:104F8000F0F1606801EB5001B1FBF0F0A0F110010D
:104F900041450AD901250120A4F86A0024F8680FC8
:104FA0002846E6602661BDE8F08180B299E70000FE
:104FB00000800040F369FFCFFFF4FF11003801408B
:104FC000001002400044004000480040004C0040F7
:104FD0000024F400FA590008FFFC0F0070B5816549
:104FE000A0F85C2000210446C0F890102220C4F8EC
:104FF0008C00D4F88000F0B11F4BC362D4F880302D
:105000001E481863D4F880301D485863D4F88000D7
:1050100013468163A56D21682A462431D4F88000A7
:10502000FBF7F4FD38B11020C4F890002020C4F83C
:105030008C00012070BD206940B1216851E8000F4B
:1050400040F4807041E80002002AF6D12068083060
:1050500050E8001F41F0010140E80012002AF5D19C
:105060002068083050E8001F41F0400140E800127D
:10507000002AF5D1002070BD6D470008F3470008F5
:105080001D47000870B58165A0F85C20A0F85E207F
:105090000023436781684FF48056FF24B14204D156
:1050A0000169F9B940F2FF1122E07F25C1B1B1F1E8
:1050B000805F1AD0A0F86030C0F890302221C0F88C
:1050C0008C100168083151E8003F43F0010341E8CA
:1050D0000034002CF5D1416EB1F1005F0ED031E00B
:1050E000016941B9A0F86040E6E7016919B13F21C3
:1050F000A0F86010E0E7A0F86050DDE7B0F86810B5
:1051000091421FD88168B14201D10169B9B11D49ED
:105110004167016941B1026852E8001F41F48071A2
:1051200042E80013002BF6D10168083151E8002F46
:1051300042F0805241E80023002BF5D120E01249D3
:105140004167F1E78168B14201D1016969B10F4955
:105150004167016959B1026852E8001F41F490713A
:1051600042E80013002BF6D10AE0094941670268C2
:1051700052E8001F41F0200142E80013002BF6D155
:10518000002070BDC94B000861490008014B0008B0
:10519000994800082DE9F047994617460D46044600
:1051A0004FF00008089E33E0701C31D0FBF7B4FECE
:1051B000A0EB0900B04218D8BEB1206801684907C9
:1051C00026D5802D24D0402D22D0C169C94309079E
:1051D0000DD4082505622046FFF71CFBC4F890504B
:1051E00084F884800120BDE8F0870320FBE7C069D4
:1051F000C04300050CD421684FF4006008622046CB
:10520000FFF708FB2020C4F8900084F88480ECE7C6
:105210002068C06935EA000004D00020B842C3D03D
:105220000020E0E70120F9E70148FDF76DB8000034
:10523000A80100200148FDF767B800003C020020EB
:105240000148FDF761B80000D002002030B591B0F0
:10525000054638208DF8400002208DF8410010A846
:1052600000904FF6FF74022304222846FDF742FE09
:1052700001A9284600F008F810B1201A11B030BD7D
:10528000BDF8090040BAF9E72DE9F04105460020D4
:1052900081F83800064680460C466420FFF71EF968
:1052A00008276DE0A868FEF743FE002868D094F850
:1052B000380008280ED0062827D0042833D002282A
:1052C0003CD0012846D0B8F1000F51D0B8F1FF0F03
:1052D0005CD053E0A868FEF7ADFE84F8370094F880
:1052E000380040F0100084F838002046FDF7C7FD74
:1052F00094F83710884204D0FFF7FCF80620BDE888
:10530000F081FFF7F7F80020F9E7A868FEF792FEB2
:10531000A119761C4871E078F6B2801EB0422FD1F8
:1053200084F838702CE0A868FEF784FE207106200F
:1053300084F83800E078022822D1F1E7A868FEF767
:1053400079FEE0702D2803D9FFF7D4F80520D6E7C1
:1053500004200AE0A868FEF76DFEA070FE2803D9BD
:10536000FFF7C8F80420CAE7022084F8380007E0F5
:10537000A868FEF75FFE8046FF2801D04FF00008C6
:10538000FFF7C2F800288DD00220B8E7A868FEF722
:1053900051FE48EA0028A8F57541FF39EED1A4F87E
:1053A00000800120E1E700003EB510EE103A124CFB
:1053B000A34201DD9FED110AB5EEC00AF1EE10FA2D
:1053C00001D29FED0F0A2A248DF80440BCEEC00ADA
:1053D0008DF8082010EE103A1C0A8DF805408DF863
:1053E0000630130A01AA8DF8073000920323072222
:1053F000FDF780FD3EBD000000F07F4500F07F45D9
:1054000000000000FEE738B504464FF0FF350AE023
:105410006068FEF7E5FD8DF800002B460122694625
:105420002068FDF75CFB6068FEF782FD0028EFD185
:1054300038BD0907090E002804DB00F1E02080F8E0
:105440000014704700F00F0000F1E02080F8141DF8
:10545000704730380A2801D2012070470020704779
:1054600040F29C71884203DB40F6C801884200DDAF
:10547000084670472DED028BFBF724FFFEF788FFEF
:10548000FEF7FCF8FEF7DCF8FEF76AF9FEF7DEF946
:10549000FEF72AFAFEF75CFAFEF790F9FEF7B2F98A
:1054A000FEF7A6FAFEF78AFAFDF746FD0122354916
:1054B0003548FDF7D7F94FF47A70FFF72FF801223E
:1054C00020214FF09040FBF722FD01222F49304868
:1054D000FDF7C8F92B4901220B312E48FDF79EF943
:1054E0009FED2D8A274C2D4D0022B0EE480A6178A1
:1054F0002868FFF759FF0022B0EE480AA178286813
:10550000FFF752FF264EDFF89C80274D4FF0000931
:10551000012700BF00F04EF83060012810D00228AB
:1055200011D00328F6D100BFFDF7BEFE2860012888
:105530000CD0022810D00028F6D1FEF73FFAE9E798
:10554000FDF7BCFFE6E7FDF753FFE3E72774FEF73F
:1055500057FB84F81090E7E7FEF78CFCC8F80000D2
:1055600001280CD00228DFD110491148FEF772FE45
:10557000E7700E4CD4E90001FEF7E0FDFAE7FBF717
:105580004BF9D1E700000020A80100205C000020BA
:105590003C020020D00200200000004558000020FE
:1055A00048000020500000204C0000201809002076
:1055B000F8080020F8B500241023012533A2214665
:1055C00018460094FEF784FA102333A202211846ED
:1055D0000094FEF77DFA102332A2042118460094AD
:1055E000FEF776FA324E3248FDF7C4FC30780128D7
:1055F00004D0022807D003280AD00DE06D1C042D2A
:105600000ADB012508E06D1E002D05DC01251FE0E9
:10561000FEF7D4F92846F8BD012D19D0022D22D06D
:10562000032DE0D100211023202208460094FEF72C
:1056300001FA10232022022100200094FEF7FAF93B
:1056400010232A22009404210020FEF7F3F9CAE770
:10565000002110232A2208460094FEF7EBF91023BC
:105660002022009409E00021102320220846009403
:10567000FEF7E0F910232A22009402210020FEF711
:10568000D9F9102320220094DDE700004C4F43415C
:1056900054455F4D4F4445004C415345525F524580
:1056A000534554004C415345525F4D4F5645000001
:1056B00014000020491058BFC1F140415B1058BF91
:1056C000C3F140438B42EFF3008070474FEA115320
:1056D000A3F58063D3F11E03A8BFD3F1200C08DB30
:1056E0004FF0004242EAC12252EA505232FA03F02D
:1056F000704709420BD4102BC4BF0020704703F53C
:10570000787CBCF1FF3F05D04FF0FF3070474FF081
:105710000000704770B500F017F900BF499224806F
:1057200000207047F0E710F0004248BF4042B0FA56
:1057300080F310FA03F10AD0C3F11D0303F580636F
:105740004FEA415002EB035202EBD12170474FF078
:1057500000007047B0FA80F310FA03F10AD0C3F1E9
:105760001D0303F580634FEA41504FEA035202EBF9
:10577000D12170474FF000007047000051EA030C40
:1057800017D41CF5801F58BFBCF5801F00F10680A0
:10579000994218BF704708BF9042704707D711F56C
:1057A000801F58BF13F5801F19D499427047894252
:1057B00070471CF5801F08D5BCF5801FF7D58B42BC
:1057C00018BF704708BF824270474FF4001C1CEBA3
:1057D000410F38BF1CEB430F01D28B42704770B5AD
:1057E00000F0B2F8922449004FF000514FF080537E
:1057F000FFF760BFDFF848C170B51CEA111E1EBF7D
:105800001CEA13159EEA0C0F95EA0C0F00F06F804E
:1058100081EA030423EA4C134EEAD47E21EA4C11B8
:1058200041F4801143F48013AE44A1FB024CA0FB71
:105830000365AEF17F7E361955EB0C05A1FB034CD9
:105840004CF10003A0FB021C16EB0C06654153F162
:105850000003094218BF46F0010613F4007F0BD184
:105860004FEA03314FEA0530340341EA155140EA6B
:1058700016506FF003020AE04FEAC3214FEAC52039
:10588000F40241EA555140EA56506FF0020202EB31
:105890002E4201EB025585EACE710AD05FEA440C34
:1058A00018BF24F0004450F1000041F1000120EA4B
:1058B000D47040F2FE7C624500D270BDA84214BF95
:1058C0004FF080444FF04044002E08BF0024BEF14A
:1058D000806FA8BFA1F1C041BDE8704080F2828016
:1058E0004FF0000001F1C04101F0004170479EEA15
:1058F0000C0F0CEA131518BF95EA0C0F06D04FF0E9
:10590000000081EA030E0EF0004170BD00F01CF8AB
:105910008900013E00F007B800F009B84FEA430CD7
:105920005FEA5C5C08D081EA030100F05BB84FEAF3
:10593000410C5FEA5C5CF6D14FF000000149704712
:105940000000FF070000F87F0EF1020E2EF0030E9C
:105950005EF8046B364205D4012A43EB030515F5C6
:10596000001F12D8012841EB010C1CF5001F0CD8B8
:105970000ED14FEAD17C15F5001F0CEB4C0C0CF14D
:10598000020C08BF4CEBD37C04E04FF0080C01E0A4
:105990004FEAD37C0CEB4C0526FA05F606F0070619
:1059A000B6F1040C06D20EEB860CBDE870404CF04C
:1059B000010C6047DFE80CF0090B02024FF00041D8
:1059C0004FF00000A1F5002170BD194610460128D6
:1059D00051EB010418BFD4F5001484BF002001F07E
:1059E000004170BD0808A0F500114FEA3101704771
:1059F0004FF04070E1EE100A704701000200040011
:105A0000060008000A000C00100020004000800082
:105A1000000101010103070100000804020408015C
:105A2000010100000000000000000102030406075D
:105A3000080900000000010203040000000000004B
:105A40000000002F000000000700070000147F1472
:105A50007F1400242A7F2A12006264081323003670
:105A60004955225000000503000000001C2241009F
:105A7000000041221C000014083E08140008083EE3
:105A80000808000000A060000008080808080000DE
:105A900060600000002010080402003E5149453EAD
:105AA0000000427F400000426151494600214145CB
:105AB0004B31001814127F10002745454539003C32
:105AC0004A49493000017109050300364949493600
:105AD00000064949291E00003636000000005636EF
